:020000042000DA
:1000000000980020A5040020AD040020C5040020B5
:1000100000000000000000000000000000000000E0
:10002000000000000000000000000000DD040020CF
:100030000000000000000000F5040020F70400208C
:10004000C7240020053103000D31030037250020AF
:10005000492500208D310300832500208B250020B9
:10006000F9040020F9040020A3250020AD3103008D
:10007000E5180020DF1B0020F9040020F90400200F
:10008000F9040020F9040020F9040020531700208F
:10009000571700205B1700205F1700206317002010
:020000042000DA
:100160003200000055060020A3100020B126002018
:10017000000000000000000063800200BD8002005B
:100180009D0E0020FB8002001981020035810200D3
:100190005D810200992400203B060020890E00208A
:1001A000930E002000000000000000003F0000004F
:1001B000F4850020000A0000680D0800900200008D
:1001C00068070800F405000004100800000800009B
:1001D000000000002000000048000000580000005F
:1001E0006800000004010000160100002801000062
:1001F0002E010000202A00008E2E000001000000C9
:10020000881300002D110020E9600200FD93020018
:10021000C31C002019280300A57402001923002024
:1002200003000000D5200200B926002004000000D1
:10023000D74902000F490200831D020063910200AA
:10024000B7910200BF910200078202007182020092
:10025000783C0020AD8302009384020041850200B7
:1002600015860200378602005F860200758602004E
:10027000F9870200258902005D8A0200D38C020002
:10028000098D02000F900200438D0200278E0200AC
:10029000F98E0200478F02000F0E0020D58F02005A
:1002A00049510200775102002F5202001000000055
:1002B00020030000803E000000000000000000005D
:020000042000DA
:1002C000504600030003983A6400F401B80B000C98
:1002D000B80B120030003000CD009A01120024004B
:1002E00030006400B0001800280012001200D0078F
:1002F0000000FFFF00000000000000000000000000
:100300001F000002444131343538302D30310000B7
:1003100000000000000000000000000000000000DD
:0403200000000000D9
:020000042000DA
:10034000FFFF010000C201000000000000000000EB
:100350000000F4010100011B0A071AFFD200021578
:10036000585CDE931B0142CC9A1325009BEDC65EC0
:1003700000010002C5000000000009FF00605257A4
:100380002D424C450000000000000000000000006D
:100390000000000000000000000044413134353806
:1003A00078000000000000000000000000000000D5
:1003B000000000000000000000000000000000003D
:1003C000000000000000000000000000000000002D
:1003D0000000000000000000010000CAEA80D00711
:0403E000064064323D
:020000042000DA
:100440000348854603F09CF900480047C720020096
:10045000009800200F4906200880FF200E49013037
:1004600008600E4988683E2290432E308860002242
:10047000052000070280018A0F231B021943018215
:1004800001210748C90404C1401E0028FBDA62B6F6
:10049000704700000034005080E100E0003300505D
:1004A000FF0B00001548804715480047042071469F
:1004B000084203D0EFF3098012490847EFF30880A0
:1004C0001049084704207146084203D0EFF3098021
:1004D0000D490847EFF308800B490847042071468F
:1004E000084203D0EFF3098008490847EFF308807A
:1004F00006490847FEE7FEE7FEE700005504002036
:1005000041040020A90A002011050020C305002095
:1005100005221207518A8023194351821249036828
:100520000B6043684B6083688B60C368CB60036972
:100530000B6143694B6183698B61C369CB6108625D
:100540000A48836A4B62C36A8B62036BCB62C36BDC
:100550000B63436B4B63806B8863908A800601D585
:1005600000BE7047FEE700000018080000ED00E044
:100570008307FF22DB0E9A408907090E9940002865
:100580000BDA0007000F08388308DF489B001818B3
:10059000C36993430B43C36170478308DB489B00E7
:1005A0001B1818689043084318607047028908892F
:1005B000D749101A80B2884201D901207047002023
:1005C000704781692039897F082904D2D14A89007E
:1005D000515881617047FEE710B5D048CE4901619E
:1005E000CF494161CF498161CF49C161CF490162A2
:1005F000CF494162CF498162CF49C162CF4901638E
:10060000CF494163CF498163CF49C163CD49C348D5
:100610005C3140300160CD494160CD498160CD49B8
:10062000C160C8160124CC49E4060C600021FFF724
:100630009FFFC9488038046010BD10B5C74900202D
:10064000086000F0DFFB01208007016B49004908CA
:10065000016310BDC2498AB001200870C149082059
:10066000088005252D076888BF4C002824D16088A4
:1006700001210843608000200190401C0190142853
:10068000FBDB688980088000401C6881688940061F
:10069000FCD56989042001436981B449698069896D
:1006A00081436981A88A0006FCD56889800880009A
:1006B000688168890006FCD503F074F800F0C8FD75
:1006C00000F0D0FAAA4801780170AA4801780170B8
:1006D000012003F06DF8FF2601360D203146800120
:1006E00003F06CF801F034FE00F044FC00F004FB71
:1006F000042000F001F9072000F0FEF80A2000F0C5
:10070000FBF8062000F0F8F80B2000F0F5F80120C7
:1007100000F0F2F8022000F0EFF8002000F0ECF812
:100720009548006803F050F8B00501683143016056
:1007300000F03FF90121C81EFFF71AFF02F01CFA72
:10074000FFF77BFFA220E88287484188E02291439F
:10075000A0314180012003F03DF86E4903AC083917
:1007600003C90794002603C43746083C05252D0716
:10077000288900061AD5A800006B000416D403F0DF
:100780002FF8C00712D1042003F030F8019003F0D5
:1007900033F80198002809D000200190042101A815
:1007A00003F030F8002801D000F03FFB73480178D7
:1007B000002901D00021017002F010FDA02F0FDDF3
:1007C0000027204602F0F2FB052E02DA641C761C9C
:1007D00001E0079C00267F1C062FF2DB002700E0CB
:1007E0007F1C72B602F0B1FD01F0D8FD69460870B9
:1007F000042806D002280AD0032808D0012878D07F
:1008000078E05F480078012810D0032008700520A8
:100810000007018A0425294301825A48C06901283A
:100820006846007813D9032802D04BE00220EDE798
:1008300002F0EEFF002845D002F0F0FF002841D082
:10084000032002F0F1FF00283CD0022006E003283C
:1008500038D102F0E9FF002834D001204A4908705D
:10086000294801692943016105200007418A2022A6
:1008700091434182018A022211430182694609782B
:10088000022922D0428A2A4342827F229201944640
:10089000028880231A4302800022521CD2B20A2A04
:1008A000FBD3428A10231A4342826246374B521EC0
:1008B0005A61028880239A43028002290CD00329BE
:1008C0000AD00FE002206946C9E7418A29434182E4
:1008D000428A10218A43428223484188FF22013202
:1008E0009143418030BF08480169A943016101E09B
:1008F000FFE730BF62B639E7C106C90E0120884064
:10090000234908607047000000ED00E000E400E0CB
:1009100030750000583C00209427030000840040FC
:1009200062B600DF28A30200704701DF1CCA020084
:10093000F8BD02DF40CB0200F5E703DF84D40200FC
:1009400004DF89B0BC330200F8BD05DFF8BD06DF67
:10095000EC0C030070BD07DF80E100E08C030800B1
:1009600000800020003300502000005016050000D9
:1009700000000800202A0800049000207680002053
:1009800054020800E0010020C40608000080004076
:1009900080E200E0704700003E480178002902D064
:1009A0008021417070473C49002008703B49C87065
:1009B000704738480178002902D081214170704782
:1009C0003549012008703549C870704731480178B1
:1009D000002902D08221417070472F4902200870FF
:1009E0002E490120C87070472A488178002904D018
:1009F000491E0906090E817017D142780021002A8C
:100A000004D09207920F0270417004E00278002A2D
:100A100001D0521E02701206120E017005D0012A7A
:100A200002D0022A01D1D1E7C3E7704710B5194CB3
:100A3000A078401CA0702078002805D102F0FAFEB2
:100A4000421CFFF7A9FF227010BD12490120C87097
:100A5000704710490020C87070470E48C078704732
:100A60000020EFF31081012282F310880522120783
:100A70001289120605D40A48028901231A43028109
:100A80001846002900D0012181F3108870470548DD
:100A9000007870470180002054020800C606080054
:100AA000003300506880002005221207118A0423B9
:100AB00019431182118A022319431182118940239B
:100AC00019431181184B01211960184B0821198015
:100AD000518A802319435182154903680B61436889
:100AE0004B6183688B61C368CB6103690B624369A7
:100AF0004B6283698B62C369CB6208630D48836A6A
:100B00004B63C36A8B63036BCB63C36B0849403190
:100B10000B60436B4B60806B8860908A800601D5C8
:100B200000BE7047FEE7000080E200E000330050A6
:100B30004018080000ED00E070B568480022016927
:100B4000D243002901D0114600E00121CB170C0F40
:100B50001B0123430C01016161490D684E682C4360
:100B600033430C604B604369002B01D0144600E016
:100B70000124E317E50E5B012B4344610D6864011A
:100B80004E682C4333430C604B60C368002B01D08C
:100B9000144600E00124E317650FDB002B43C4601B
:100BA0000D68E4004E682C4333430C604B6083684F
:100BB000002B00D101228260D017930F80001843D0
:100BC0000C6892004B68224318430A60486070BD6D
:100BD000F8B5002403252D0202232A4604212046CD
:100BE000009400F0D8FB01231E02324605210020AC
:100BF000009400F0D0FB14232A4603210020009427
:100C000000F0C9FB1323324602210020009400F0BB
:100C1000C2FBF8BD7CB501263248F504056002210F
:100C2000002000F0E0FB0024002815D00221002065
:100C300000F0D9FB002809D002F0EAFA0094012361
:100C4000019413220221002000F0EEFB26480560EB
:100C50002448803805607CBD02F0F0FA002300963D
:100C60000194EEE71CB505242407208A022188435D
:100C70002082A08A0007FCD5FFF7AEFCFFF7A8FF93
:100C8000A08880210843A0800321092000F0A7FD4F
:100C9000608A20210843608202F0F5FA134913208C
:100CA00000F03DFD0221002000F09DFB0024002803
:100CB0000ED00221002000F096FB002807D00094FF
:100CC0000123019413220221002000F0ADFB1CBD82
:100CD0000120002301940090F4E7000028900020F8
:100CE0002090002080E100E080E200E0150C002070
:100CF000934900204860704770B5052000070189BE
:100D000030229143018101898022114301810189AF
:100D100089088900491C018101890823194301813F
:100D200088490C8814430C80448A9C43448205897A
:100D3000402425430581058A0426B5430582858A1A
:100D4000AD07FCD57E4E002575600D880126354324
:100D50000D804D89AE057C4D0E8801D52E4300E0F7
:100D6000AE430E800D887826B54328350D800D885A
:100D7000062635430D80458A1D4345820B889343E3
:100D80000B800289A24302814889800503D56D4901
:100D90000520603188800120800701688215914319
:100DA00001606A4801683F22520291434214891847
:100DB0000160016802031143016070BD0520000756
:100DC00001883022114301800188032211430180F0
:100DD0007047052000070188302291430180018877
:100DE00089088900018070470321594809028181DF
:100DF000082242800021491C9629FCD3828070473A
:100E00007047704710B5534802F01AFD10BD70B519
:100E10004C4C6088C006050F02F018FD61881E2248
:100E200091436A001143618070BD10B54A490120A9
:100E3000C863C86B0028FCD101208007C1694748FE
:100E40000268914201D20022026019238A1ADB0152
:100E50009A4212D3016002F0FFFC414A1188884295
:100E600001D9411A00E0091A89B2182905D3108066
:100E7000012002F0F7FC02F0FBFC10BD08B5009861
:100E800008BD08B5009808BD08B502F0F7FC009051
:100E900008BD08B502F0F8FC009008BD08B531495E
:100EA00001204A695206D20F13D04A699206D20F26
:100EB0000FD000220A610092FF225F32009B5B1C70
:100EC00000939342FAD34969C907C90F02D002F0CF
:100ED000E1FC002008BD40183721C000090140187E
:100EE000704710B5204A0020117800290DD01A490A
:100EF0000120C863C86B0028FCD101208007C069AD
:100F00001A490968884201D2012010BD00201070E2
:100F100002F090FC022803D002F08CFC01280BD1D7
:100F200013490820088005200007818A8906FCD41F
:100F3000418A802291434182002010BD00207047E9
:100F40000880002020000050001000000002004037
:100F5000203000507D120000C00000407C040800DA
:100F6000780408000010005000800020043E00209B
:100F70000033005030B58B4A8B49D005048880235C
:100F80001C430480894C65892D0701D4521EFAD276
:100F9000874C01222260874C0A882280864A498831
:100FA000118001889943018030BD0020704770474F
:100FB000704770470020704701218907086B07229E
:100FC000104308637047704710B57D497B4808603F
:100FD0007C494C2008807B4B7B4A203B1A827C4911
:100FE0007A4848807C487B4901807A4919314180A0
:100FF00022214181812189000182784941827849F9
:1010000001837649113141837349764820318880C4
:1010100041217548090181807449C180734C1034A5
:10102000C48101824182891C8182611FC182FF21AA
:10103000463101836E4941836E49592008806D48CD
:101040006D4C20300480432444806C4C4C82D5216C
:101050008180FF21D33101816949418169498181C1
:101060006A49694808805748694960384180C188A1
:1010700010242143C18060490A390181514C6549DE
:10108000403C61805A82082141814B48594900887F
:1010900040390882474860490088088010BD4008F0
:1010A000704700B58BB05D4A42625D4A82625D4A1C
:1010B00042615D4AC2625D4A02605D4A02625D4A07
:1010C00042605D4AC2613E4A3C48002110603C4893
:1010D0004038026B03129A430263426B1F231B04C6
:1010E0009A4303231B04D218426354480268C31274
:1010F0009A430260026803139A43026068464154AF
:10110000491CC9B22829FAD3014628224C4802F0CA
:10111000C7FBFFF759FF02F09FFB4A4908800020F8
:1011200002F0A0FB02F0A4FB0BB000BD10B5244AF6
:101130000F2122480902106021484038426B1F23CA
:101140001B049A4303231B04D2184263000602685F
:10115000D208D2000260052000070289920892009E
:10116000521C0281028908231A430281028A0A431F
:1011700002820E484189890504D50188782291436D
:1011800008310180FFF720FF2F48006F007800280A
:1011900004D02E4800880B496039C880012002F035
:1011A00019FB10BDA0860100087F0400200000503C
:1011B00000800040560208004A0308004C0554070E
:1011C00080000040602C00507F7F0000AC290000B0
:1011D00000220050090900000024005022040000F1
:1011E00030D00000EE110000002500502E0200005B
:1011F00044200000402800500D95000002420000ED
:10120000E4DC00001092000053780000002A005037
:101210008B1000009DD5000000260050AB0F002071
:10122000AF0F0020B50F0020B90F0020B10F002034
:10123000C70F0020B30F00209F10002000020040C5
:101240002000080078040800E00100205204080093
:10125000FEB50020FE4E034628220021424392198B
:101260008C00491C13510A29FADB401C0428F3DBCB
:10127000FFF762FCF648002208380260426015461B
:101280000024F4486900475A0120A04080B2074278
:101290001CD0282068438019A1004058411C19D057
:1012A000002810D0C117224602F000FB2A0102F0EC
:1012B000FDFAE74B083B1A685B681043E44A1943A0
:1012C000083A10605160641C0A2CDDDB6D1C042D93
:1012D000D6DBFEBD0095019400BEE3E7F8B51646E7
:1012E00004460D460A461F460120002102F0DEFAA0
:1012F000220102F0DBFAD64B083B1A685B6810400B
:101300001940084300D100BE032C00D10424D24967
:1013100060014018690008183E43C680F8BD70B5EA
:1013200004460D460A460120002102F0BFFA2201C0
:1013300002F0BCFAC64A083A1368526818401140D5
:10134000084300D100BE032C00D10424C24960012F
:1013500040180121A940818070BD70B504460D463A
:101360000A460120002102F0A1FA220102F09EFAB1
:10137000B74A083A1368526818401140084300D130
:1013800000BE032C00D10424B349600140180121A0
:10139000A940418070BDFFB581B00C4605460A46A4
:1013A0001F46012000210A9E02F080FA2A0102F065
:1013B0007DFAA74B083B1A685B6810401940084348
:1013C00000D100BE002E2146284602D0FFF7C5FFFF
:1013D00001E0FFF7A4FF3B4621462846039AFFF7AA
:1013E0007DFF05B0F0BD70B504460D460A460120EC
:1013F000002102F05BFA220102F058FA944A083AFE
:101400001368526818401140084300D100BE032CF5
:1014100000D1042490496001401800880121A940AE
:10142000084000D0012070BDFFB514460D460646A9
:101430000A4681B00120002102F038FA320102F0A0
:1014400035FA834B083B1A685B6810401940084323
:1014500000D100BE81A000680090814880892346A9
:10146000133BFF2201329A400B999043002901D08F
:10147000012700E00027D10701D0002138E09107C3
:1014800001D5012134E0510701D5022130E01107D7
:1014900001D503212CE0D10601D5042128E09106D5
:1014A00001D5052124E0510601D5062120E01106D1
:1014B00001D507211CE0D10501D5082118E09105CF
:1014C00001D5092114E0510501D50A2110E01105CB
:1014D00001D50B210CE0D10401D50C2108E09104C9
:1014E00001D50D2104E0510401D50E2100E00F21AA
:1014F0008F405B493843888188890B9F8009800130
:10150000384388810F8A9743D00701D0002038E004
:10151000900701D5012034E0500701D5022030E0CA
:10152000100701D503202CE0D00601D5042028E0C7
:10153000900601D5052024E0500601D5062020E0C4
:10154000100601D507201CE0D00501D5082018E0C1
:10155000900501D5092014E0500501D50A2010E0BE
:10156000100501D50B200CE0D00401D50C2008E0BB
:10157000900401D50D2004E0500401D50E2000E0B8
:101580000F200A9A824017430F820F8A01221046C9
:1015900098408743C30701D0002038E0830701D576
:1015A000012034E0430701D5022030E0030701D5D4
:1015B00003202CE0C30601D5042028E0830601D5D2
:1015C000052024E0430601D5062020E0030601D5CE
:1015D00007201CE0C30501D5082018E0830501D5CC
:1015E000092014E0430501D50A2010E0030501D5C8
:1015F0000B200CE0C30401D50C2008E0830401D5C6
:101600000D2004E0400401D50E2000E00F20049BD3
:1016100083401F430F821248610040380818418BF5
:101620006B4689099B5D89015B1919434183A007BA
:10163000C30EFF21994080209840002C18DA230720
:101640001B0F083B9D08074BAD00ED18EB690BE045
:10165000289000208E3C00200030005001090F1916
:101660000014005000ED00E08B430343EB6107E002
:10167000A5083D4BAD00ED182B688B4303432B6051
:10168000E006C00E824039480260AAE610B5384C28
:10169000E38901221146133881408B43C80701D0EA
:1016A000002038E0880701D5012034E0480701D543
:1016B000022030E0080701D503202CE0C80601D540
:1016C000042028E0880601D5052024E0480601D53D
:1016D000062020E0080601D507201CE0C80501D53A
:1016E000082018E0880501D5092014E0480501D537
:1016F0000A2010E0080501D50B200CE0C80401D534
:101700000C2008E0880401D50D2004E0480401D530
:101710000E2000E00F2082401343E38110BD154AE4
:101720008000801880384163704710B50446FFF789
:10173000ADFF1049A00040188038406B002801D050
:10174000804710BDE106C90E012088400A490860A3
:1017500010BD1320E9E71420E7E71520E5E7162080
:10176000E3E71720E1E7000000E400E000E100E02B
:1017700000140050C890002080E200E0AD484069AD
:10178000C007C00F01D00020704701207047A94951
:1017900022200861704700B5A64901224869400629
:1017A000C00F16D048698006C00F12D0FFF7E6FFC1
:1017B00000280ED00869022398430861FF2387336D
:1017C0000220401C9842FCDBFFF7D8FF002803D022
:1017D00000E00022104600BD22200861F9E730B485
:1017E000944A93898024A343938187231381002300
:1017F0009380958925439581938093801080918172
:101800009089A04390818C49600108608B490A68E7
:101810004024120A120222430A6087498039086074
:1018200087490860874803702038436183610361FA
:1018300043608360036030BCADE77E4911200860DF
:10184000704700B57B4A012150694006C00F14D093
:1018500050698006C00F10D0FFF790FF00280CD011
:1018600013201060FF2387330220401C9842FCDBCA
:10187000FFF784FF002803D000E00021084600BDE8
:1018800011201060F9E76B48016902229143016160
:1018900070476C482038006870476648A021016195
:1018A00041698906C90FFBD041694906C90FF7D0C4
:1018B000704710B5634C203C216114340DC45D4861
:1018C000012142688A430A43426010BD10B55D4C55
:1018D000203C02C40DC4574948680222904310437B
:1018E000486010BD10B5534881680907090F0129E8
:1018F0001FD0022921D004291CD00C2919D151490B
:101900000978012913D141690906C90F0FD04D4942
:10191000002220390A614A6183885B085B0083806A
:10192000CB69002B03D0CA6100210120984700F049
:1019300019F810BD00F034F810BD00F053F810BDD8
:1019400000B53C4841694906C90F09D04069800685
:10195000C00F05D0FFF712FF002801D0002000BD06
:10196000012000BD30B4374800212038314B364CBF
:1019700009E01A68227045692A7002696D1C521EBE
:101980004561491C02615A69D207D20FF1D14369FE
:101990001A7042610261C369C26130BC02201847FB
:1019A00030B428480021284C2038224B0BE01A681C
:1019B00022704569491C2A7002696D1C521E4561DE
:1019C0000261002A05D05A69D207D20FEFD130BC8C
:1019D000704700234361C269002AF8D0C36130BC5C
:1019E0000020104730B41748124D20381149603597
:1019F00084680CE043681A780A6002685B1C521E17
:101A000043600260002A02D12278002A04D0AA8B07
:101A10009207D20FEED1DAE7002242604B6802242F
:101A2000A3434B60C1680029D1D0C26030BC002004
:101A3000084700000010005080E100E00CE400E0E6
:101A400080E200E03C800020DC90002030B4734C49
:101A500072497348603409E043681A780A60026882
:101A60005B1C521E43600260002A05D0A28B9207C5
:101A7000D20FF1D130BC7047002242604B68022483
:101A8000A3434B6081680029F4D0826030BC002001
:101A9000084730B5614A93898024A3439381072383
:101AA00013810023938095892543958193809380AA
:101AB000108091819089A04390815A49A0010860CB
:101AC000594A1168FF242402A143440021431160B4
:101AD00054498039086055490860514803760361CC
:101AE000C3604360036030BDD3E74C4922200861E6
:101AF00070474A4922200861704708B547490120CC
:101B00004A695206D20F13D04A699206D20F0FD0FB
:101B100000220A610092FF225F32009B5B1C00934F
:101B20009342FAD34A69D207D20F02D02220086129
:101B3000002008BDE1E73948A0210161416989061B
:101B4000C90FFBD041694906C90FF7D07047F2E7CA
:101B5000334B5A61D96018613048012142688A4389
:101B60000A4342607047F3E710B52D4CA260216034
:101B70006060FFF76BFF6068002805D02749486860
:101B8000022290431043486010BDEDE710B5234892
:101B900081680907090F01291AD002291CD00429DC
:101BA00017D00C2914D11E4A117E012910D1416988
:101BB0000906C90F0CD00021D160116183885B0830
:101BC0005B0083805369002B02D00120516198474C
:101BD00010BD00F005F810BDFFF738FF10BDD5E7C8
:101BE0000F490E4809E002680B691A70CA685B1C4D
:101BF000521E0B61CA60002A04D04269D207D20F7C
:101C0000F1D1704700220A6143685B085B004360C2
:101C10004B69002BF5D000204A6118470011005095
:101C20004080002080E100E00CE400E080E200E081
:101C300070B5EFF31085012080F31088264801F07D
:101C40003BFE0446002D1DD0012080F31088002C9F
:101C500023D020462038C08B204988421DD161897D
:101C6000208901F02FFE05000ED021461031A389F6
:101C700062892089A847002806D001280DD00228B3
:101C80000BD105E00020E0E7204601F021FE04E052
:101C9000114821460C3001F021FEEFF310840120A1
:101CA00080F310880C480068002802D1012001F060
:101CB0001BFE002C03D0012080F3108870BD002093
:101CC000FAE710B5BC21064801F014FE05490120D1
:101CD00001F016FE10BD0000A805080038830000C2
:101CE00004060800311C002070B516460D4610464B
:101CF00001F00CFE002869D0340A304601F006FEDF
:101D0000012812D0A87A1E2811D029460A310E289F
:101D100045D019DC801E030001F0FEFD0B2558297B
:101D2000582D58315839583D5800022070BD314661
:101D3000274801F0F7FD0021204601F0F9FD0221BE
:101D4000304601F0FBFD41E018283CD006DC1028AD
:101D500019D012282BD0162838D130E0522822D0A2
:101D6000D22833D127E0204601F0EEFD2EE02046B8
:101D700001F0F0FD2AE0204601F0F2FD26E02046C9
:101D800001F0F4FD22E0204601F0F6FD1EE02046C1
:101D900001F0F8FD1AE0204601F0FAFD16E02046B9
:101DA00001F0FCFD12E0204601F0FEFD0EE02046B1
:101DB00001F000FE0AE0204601F002FE06E02046A7
:101DC00001F004FE02E0204601F006FE002070BD96
:101DD00001280000F3B581B001980C460102CA1D2C
:101DE0000E310223344801F0FDFD047001990546CF
:101DF000022732488E00002C06D0042C16D0062C68
:101E000010D0072C3FD108E0815905224968897C10
:101E1000114069708059C77335E0084601F0E8FD4C
:101E2000687030E080590F21C1732CE0044680595E
:101E30004068417C012902D1007E01280FD0019821
:101E400001F0DCFD01210028A0590BD04268D07DB3
:101E500000281CD001281AD004280DD00FE0002043
:101E600068700DE04068C27D022A01D0042A06D1C4
:101E7000007C02280BD102E0107C022807D06F7092
:101E8000A1590320C873284601F0BEFDFEBD69704C
:101E9000F6E701460A780120042A01D9002070479C
:101EA0004A78002A01D0012AF8D10A79082AF5D8FF
:101EB00049790829F2D87047021C0000280508005B
:101EC000FFB589B00D4600206946059008720B9851
:101ED000000A009001F092FD07460B9801F016FDF4
:101EE00000287DD00B982978000A8400784E0129BB
:101EF00063D0042904D0062948D0072968D125E0F9
:101F00003059C17B032901D0042961D169780029A6
:101F10001AD040681022A91C01F0C2FC002F06D084
:101F20003159C87B032807D0042808D050E0305925
:101F3000C07B032803D04BE00B20C87348E0052189
:101F4000009801F067FD43E00120B6E03059C07B06
:101F50000E283DD1009801F04BFD002103E02A1826
:101F6000401C9170C0B21028F9D3688A6946088372
:101F7000294606A808221431023001F091FC06AB74
:101F8000AA1C3946009801F04BFD21E03059C07B76
:101F90000F281DD1AA1C0A21009801F047FD002F2F
:101FA00004D03946009801F047FD11E000231A469D
:101FB0003946009801F046FD0AE0012F08D10B9840
:101FC00001F0A4FC01281CD0002801D002200590BB
:101FD0006846007A002811D002AA0521009800E086
:101FE0000CE001F023FD6846027A60200243684657
:101FF000027201233946009801F024FD05980DB0C6
:10200000F0BD3059C07B0228E2D16878002851D059
:1020100002210B9801F092FC305907224068A91C5C
:10202000173001F03DFCE878002804D130594068B1
:10203000407C01283AD0009801F00AFD002837D0F2
:10204000297A009801F00AFD002833D0009801F0A9
:102050000BFD0121009801F00DFD00282CD0305916
:102060004068417E00292BD0042929D0C17E027D01
:102070001140C17630594068017F427D114001779F
:102080006846007A0028A7D130590221426800989A
:10209000173201F0CBFC305941684031897B00296F
:1020A00013D004210098FFF795FE91E7022004E089
:1020B000062002E0082000E00320694608728BE752
:1020C0000021C17630594068D9E70B21C1737FE701
:1020D00028050800F8B50D46064681002B48EA8819
:1020E0004458521C20686B89018F294F514300913D
:1020F000014640314A89C989511A8AB2991A89B26E
:10210000B94214D29A4212D0294601F0B9FC2D8965
:102110002049009801F0BAFC2818801C4034E08265
:102120003002401C80B2042101F008FCF8BD2821D7
:10213000304601F0B1FCF8BDF8B5054687001348FC
:102140000C46C059C9880068114E02464032538976
:10215000D2899A1A92B28B1A9BB2B34211D20B4E09
:102160008A420ED001F09EFCF05905225F30611CBE
:1021700001F096FB2802401C80B2052101F0DEFB35
:10218000F8BD2821284601F087FCF8BD4C03080063
:10219000FF7F00001027000070B50446007800257E
:1021A0000D2801D00A2200E002225A494B7A002B66
:1021B00006D00D2804D0637C032B01D0432551E0C9
:1021C000097A8A4339D10D2809D00E2802D00F2868
:1021D00003D134E0607C032804D3402542E0607CD6
:1021E0000328FAD8A07C0428F7D20A2908D0607CFA
:1021F000012822D0022820D06078032809D811E0D5
:1022000001F056FC012806D16078032803D000288D
:1022100001D0492526E001F04BFC002802D160786E
:102220000228F6D83020035D22462046E17C313278
:10223000143000F019F8054614E0422512E001F0D0
:1022400037FC012807D16078052804D1A01D01F0D2
:1022500035FC0028DDD001F02BFC002802D160788D
:102260000228D6D8284670BDFFB5002086B00121CF
:102270006A461170044605910021002C06D0089D85
:10228000099A1F239A4234D9402032E01C23069D2C
:10229000079AF7E76B185E78330001F03DFB1D26C7
:1022A0001010101010101010102626262626262694
:1022B0002626262626261010101010102600059B14
:1022C00003E06F46FF5CB74204D05B1E5BB2002B9D
:1022D000F7DA03E0002B01DB4A2006E0059B6F469E
:1022E000FE54059B5B1CDBB205936B5C491C5918C3
:1022F000C9B2914201D20028CCD0914202D04A20EA
:102300000AB0F0BD641CE4B2022CF9D20028B3D0AC
:10231000F6E700009805080070B516460C4605461D
:1023200001280FD106221749174801F0CDFB0028DC
:1023300008D006221449304601F0B2FA0620207077
:10234000002070BD32462146284601F0C3FB70BD17
:1023500070B50E480E49C405228880252A43228084
:102360000C4A53891B0701D4401EFAD20A4A0120A5
:1023700010600622044801F093FA2088A8432080C8
:1023800070BD0000383E03005C800020A086010084
:10239000D47F04002000005000800040F8B5374C86
:1023A0000026606D0090FEF758FB354D002802D1E5
:1023B0002879022801D100200090FEF792FD002824
:1023C00059D101F08DFB002855D0E878012600286E
:1023D00051D005273F07B88AC00701D004264AE03C
:1023E00001F0FEF9002846D126488069002801D076
:1023F000606D0090A978684601F078FB00283AD01B
:10240000A978684601F0FEF9002834D0012084073D
:10241000E16B890A89020143E163E06B1A490840D4
:10242000972189020843E063E06B0721C002C00ADC
:1024300049050843E06300980426C002642101F0C6
:1024400025FB1249401E08602979002900D001218E
:1024500001F052FB0E48C06A8047206B0004C00F99
:10246000FBD00C480168C905FCD501F04BFB38894D
:102470008021884338813046F8BD0000600200208A
:10248000C6060800A8050800FF03E0FF64800020DE
:102490001C0708000002004010B50124A407A06B2F
:1024A000FEF7F7FC534901F0F1FA27221201511A05
:1024B00000D10121504A50601160206B08218843EF
:1024C0000843206310BD38B5002000904B49082018
:1024D0000880FEF773FC0524240702E000BF00BF5C
:1024E00000BFA08A0006F9D560898008800060815D
:1024F00043484188490849004180FEF76AFCA08AA8
:10250000400701D5FEF7AEFB2089802108432081DA
:10251000208A042188432082A08A8007FCD539497B
:1025200048050A68D20202D40269520702D4009A0E
:10253000002AF6D038BD10B501F0EAFA01F0EEFA43
:1025400031490120087010BD10B501F0EDFA0520E9
:102550000007418A80229143418228480189490825
:1025600049000181D005816904221143816101F094
:10257000E1FA01F0E5FA01F0E9FA234900200870D8
:1025800010BD10B501F0E8FA10BD10B501208007AC
:10259000008A000704D501F0E5FA1B490420087001
:1025A00010BD70B51948008885061648AD0E446800
:1025B0001748006F0078002802D1284601F0D8FAA9
:1025C00014480089104EC00507D520060BD5E0073A
:1025D00009D0284601F0D2FA03E0200603D5E0072F
:1025E00001D003203070200403D5E00501D502207E
:1025F000307070BD71020000400000400033005098
:1026000020000050000200406880002000200050A0
:10261000E0010020002C0050F8B514460F461E467D
:102620000546428801880623204601F0DBF904466E
:10263000287901F0A9FA208027716680204601F0F0
:10264000E3F9F8BD70B51446428800790D460102E1
:10265000042321480C3101F0C5F9002D01D01321CC
:1026600000E012210170448001F0CEF970BD0A88AB
:102670000270120A42708A788270CA78C2700A792F
:1026800002714A79427189798171072070474278D5
:10269000037812021A430A8082788A70C278CA705C
:1026A00002790A7142794A718079887107207047EE
:1026B00010B500F013F810BD70B5064615460C466F
:1026C000362001F023F9022805D1E2B2362329464B
:1026D000304601F05FFA70BD0D30000010B50C21DE
:1026E000054801F05DFA0549362001F05FFA002146
:1026F000362001F023F910BDDE900020983C002028
:10270000F0B589B00521C90268460184C91C8182DF
:10271000F8490183491E8183F74D0320EB80FF2197
:102720000A22B93100900191A818002336210746EA
:1027300001F042FA04007DD10126019700966889D4
:1027400008AB0222102101F03DFA0400F3D16889A0
:10275000EA4A102101F03CFA0400ECD103A80096EB
:102760000190688905AB0222132101F02BFA0400C5
:10277000E1D102AF7002E14B0197009068891033FC
:102780001022A02101F01EFA0400D4D1DC496846D1
:10279000007A48706846407A88700A466846132175
:1027A000808901F015FA0400C5D108200197009036
:1027B0000222688906AB114601F004FA0400BAD17E
:1027C00004A800960190688907AB02220E2101F04F
:1027D000F9F904002ED1C94A68462B3A0E21008A25
:1027E00001F0F6F9040025D103A80096019068894C
:1027F00005AB0222132101F0E5F904001AD10820EB
:10280000BE4B01970090688920331022A02101F06F
:10281000D9F9040078D1BA496846007A0875684643
:10282000407A48750A46684613321321808901F0C0
:10283000CFF900E068E0040066D102A90920019107
:1028400000900222688906AB114601F0BBF9040032
:102850005AD104AF01970096688907AB02220E2176
:1028600001F0B0F904004FD1A44A68461C3A0E2189
:10287000008A01F0ADF9040046D103A901200191BD
:102880000090688905AB0222132101F09BF9040036
:102890003AD102AE9B48994B01960090688930333B
:1028A0001022012101F08EF904002DD194496846CF
:1028B0002331007A08716846407A4871CA1C68461C
:1028C0001321808901F084F904001DD109200196AB
:1028D00000900222688906AB114601F073F90400EA
:1028E00012D1012001970090688907AB02220C21C8
:1028F00001F068F9040007D1804A68460D3A0C21BE
:10290000008A01F065F904466889002101F066F942
:10291000002C03D10121362001F010F8E9880123B1
:102920003622794801F05EF8047001F06DF800205D
:1029300009B0F0BD70B5704C0D4662802380E38015
:10294000488801F051F9207168882081608901214F
:1029500001F044F96D49002008700221362000F092
:10296000EDFF6948E18802233622801E01F03AF823
:102970006189891C018001F047F8002070BD10B505
:102980005D480021408901F029F90121362000F03D
:10299000D5FF002010BDF8B50878122839D15B4D5D
:1029A0002878401E0006000E287032D15848007862
:1029B00001282ED1574800F0C5FA4A2829D9802885
:1029C00000D980201B21143801F060F81B214843F6
:1029D0001430C2B269464F4800F0F4FA464E04463D
:1029E00001467089009A801C80B201F0F1F800283D
:1029F0000FD12146474800F007FB70890021801C59
:102A000082B23046FFF71EFE2878401C287000F086
:102A100029FC0020F8BDF8B5362000F077FF022829
:102A200039D13A4D2878002835D139480078012825
:102A300031D1384800F086FA00282CD0802801D9FE
:102A4000802001E0142806D31B21143801F01EF861
:102A50001B2148431430C2B269462E4800F0B2FA36
:102A6000254E044601467089009A801C80B201F010
:102A7000AFF800280FD12146264800F0C5FA70892A
:102A80000021801C82B23046FFF7DCFD2878401C14
:102A9000287000F0E7FB0020F8BD10B5164C0A4680
:102AA000608901210A3080B201F092F8608900212A
:102AB0000A3082B22046FFF7C5FD14490878401C51
:102AC0000870002010BD70B50B4D0C466889098850
:102AD0002B46C21C1B79914221D0821D91421BD1F1
:102AE0002046A178083000F01FFB3EE00022184687
:102AF00039E0000002290000DE900020D33C0020D5
:102B0000083E00200902000003D800006980002070
:102B100083800020C8800020C21D914203D1A0798B
:102B20000128E3D021E002460A32914204D1217A01
:102B30000F4800F082FA18E00B30814215D1207A5C
:102B400001280AD1607A002807D1E98801233622BA
:102B5000084800F047FF00F057FFA079012804D192
:102B600021882879002201F045F8002070BD00007E
:102B70008380002006D8000038B501246846047020
:102B80000C21654801F00CF8634D6946EC702A1D74
:102B9000352001F035F8002800D02C7100F07CFCC5
:102BA0005E49322001F002F80021322000F0C6FE1A
:102BB00038BD10B500F001FD10BD10B55648022318
:102BC00080783222010256480E3100F00BFF0121BD
:102BD00001701321417000F017FF10BD10B50446BD
:102BE0004D482C238078322201024D480E31801E40
:102BF00000F0F8FE014620300472002242720846BE
:102C000000F002FF10BD10B5502332220D214548BF
:102C100000F0E8FE044600F05BFC204600F0F4FE05
:102C20000221322000F08AFE10BD3E4810B501237B
:102C300032220D210B3800F0D5FE0221017000F088
:102C4000E3FE10BD10B500F005FD10BD364B10B50C
:102C50009A4201D91A4602E0002A00D1012200F06E
:102C6000D5FF10BD10B50221322000F067FE2D48BF
:102C7000142332220D21401C00F0B4FE0021017407
:102C8000112202704170012181740A218181052184
:102C9000C18100F0B9FE10BD224810B51E233222BA
:102CA0000D21C01C00F09EFE044601202077204626
:102CB00006221E491D3000F0F3FD0A2121826182A7
:102CC0002021218361830021A1826170232001558D
:102CD0006420E082FF208130A081FF206130E0810C
:102CE00012202070AF22920032211148FFF7AEFF70
:102CF000204600F089FE10BD0A4810B5012332229B
:102D00000D210B3800F06EFE1121017000F07CFEE9
:102D100010BD0849C86470476A8000206C3D0020DF
:102D2000043800000E340000307500007880002068
:102D300001C80000E001002010B5104600F0E6FDDB
:102D4000002809D1012332220D21654800F04AFEF6
:102D50000121017000F058FE002010BD70B5087808
:102D600015460F282DD008DC01280DD0022835D0BB
:102D700003281CD00E2836D11FE0102825D011289A
:102D800023D012282FD129E0487800282BD154488D
:102D9000222332220D21801C00F024FE044601462D
:102DA000284600F01BFC204600F02EFE1BE0487871
:102DB000002818D100F026FC15E0487800F030FC1F
:102DC00011E0487800F02DFC0DE04878442802D04E
:102DD000FFF748FF07E0FFF75FFF04E0487844286B
:102DE00001D100F02AFC002070BD70B51D461646CA
:102DF0000C46104600F08AFD022821D1280A394DE0
:102E0000FF28A8701AD03221374800F08BFD052129
:102E1000304600F093FD204600F054FB21882980C5
:102E2000617A6971214606220A31A81D00F038FD39
:102E30000020FFF7D3FEFFF705FF01E0FFF7E3FEF9
:102E4000002070BD10B510460A780A2A0BD14978C7
:102E5000002903D0084600F0E1FB04E0052100F062
:102E60006DFD00F0DCFB002010BD10B5104600F039
:102E700098FB002010BD10B51A480123807832223B
:102E800001021A480E3100F0ADFD0021017000F082
:102E9000BBFD002010BD10B510460C4600F036FDFD
:102EA000012808D12078002805D1FFF782FE0028EC
:102EB00001D000F0BEFB002010BD10B50C4620462E
:102EC00012220BA10C3000F0FFFD002806D10622D3
:102ED000A11C0C4800F0E4FCFFF70EFF002010BD21
:102EE000023400006A80002001C800001038000091
:102EF0001107B75C49D204A34071A0B535853EB037
:102F00008307000078800020F8B504460D46481C71
:102F1000069F24C400216160A160504320601E46CA
:102F20000321083C00F078FE606100202021085554
:102F3000AF4206DABE4204DC002E02DDE761A66184
:102F4000F8BDFEE70269C1688A4201DB501A70478A
:102F500080688018401A7047F8B515460F46044639
:102F6000FFF7F0FF6168081A002811DDA84200DAB7
:102F7000C5B22069A26841198E1A6169002E08DC69
:102F800008182A46394600F08BFC20694019206158
:102F9000F8BD0818AD1B2A46394600F081FCE91936
:102FA0003246606900F07CFC2661F8BDF84909787A
:102FB000002902D1F74A012111700146F54801228A
:102FC0004530C9E730B513460D460446FFF7BAFF52
:102FD000002816DD984200DAC3B2E068A268C11882
:102FE000891A904201D1606903E0002903DC61691C
:102FF0000818286006E0626910182860581AC3B2E1
:1030000000E00023184630BD30B50B460446FFF7FC
:1030100099FF00280EDD984200DAC3B2E168A56886
:10302000CA18501BA94201D1E36004E0002802DC69
:10303000E26000E00023184630BD022903D00129D8
:1030400000D1017070470021FBE770B5D14C1646E6
:10305000E41C0A460346257831462046FFF7EDFF7B
:10306000204619464230FFF777FF21460846423096
:1030700000F0EFF96078012802D02078A84203D050
:10308000FEF701FC0020607070BDC24A10B5D21E70
:103090005278002802D0022802D0FEE7082100E082
:1030A000C9B2BC48801DFFF7D0FFBA4A0821921E62
:1030B000B94B5018FEF7FDFB10BDF8B5002800D045
:1030C000FEE7B44D0026ED1E2E70A81D294600789F
:1030D0001131102201281DD10846133000F08AF961
:1030E0000446E91C0846213000F0C3F9EF1CB8780B
:1030F000012802D100F027FBBE70210005D0A54AAF
:10310000A64BD21E104611300BE02878022803D0BF
:10311000012801D0AE70F8BD9E4A00219F4BD21EFF
:103120000846FEF7D3FBF8BD0A460146994810B59C
:103130002130FFF711FF97490846213000F089F947
:10314000944C6078012804D1022000F0FCFA0020A1
:10315000607072B68F48C01E8178002904D10121A9
:1031600081700020FFF7A9FF62B610BD894808B53D
:10317000213000F036F900281BD18648453000F098
:1031800030F9002815D186480090854B8148E1210F
:10319000C83B0122C9002130FFF7B6FEFF205F3097
:1031A00000907C48FF2196230122F5314530FFF73E
:1031B000ABFE08BD774A10B5921E0821764B501819
:1031C000FEF777FB10BD734900204870887001221C
:1031D0000A70C91C487088700A70704710B56C4836
:1031E0000078002813D16B48007801280FD1694876
:1031F0004530FFF7A7FE002809DD6A494A2802DAB0
:103200000878401C08700020087000F0A9FA10BD72
:1032100010B5654880780002323000F077FB052851
:103220000BD1022000F08FFA5A480221C01CFFF790
:1032300004FF584801214130017010BD554810B5B8
:103240000121C01CFFF7F9FE52490846213000F069
:1032500010F9504CA078012803D100F074FA002036
:10326000A07010BD4B4910B5C91C0846423000F093
:1032700000F9484CE41CA078012803D1FEF787FA36
:103280000020A07010BD10B5FFF794FF41486530D5
:103290000078002807D0FEF77EFA3E4C41342078B3
:1032A000012803D008E0FEF772FAF6E702210020B9
:1032B000FEF799F8002803D02078002803D00AE010
:1032C000FFF7BCFF07E002210020FEF78CF8002882
:1032D00001D0FFF79DFF35490020087010BDF8B5FB
:1032E000334D0024686D0090FDF7B7FB314E002888
:1032F00002D13079022801D100200090FDF7F1FDC4
:10330000002820D100F0ECFB00281CD0012405206F
:103310000007808AC00715D100F062FA002812D198
:1033200025488069002801D0686D0090B178684612
:1033300000F0DCFB002806D0B178684600F062FAA5
:10334000002800D004242046F8BD38B5FFF7C7FF99
:10335000694608700446042819D10E482130FFF749
:10336000F1FD002809D10B484530FFF7EBFD00289F
:1033700003D1FEF78EFA002820D00B488078000297
:10338000323000F0C3FA052801D1FDF705FB38BD46
:1033900069800020838000208B300020BB3000201B
:1033A00052030000EB9000206A800020768000200D
:1033B00060020020C6060800A8050800FEF7C0FA53
:1033C0000028E2D1042CE2D1FEF7E5F90121002822
:1033D00004D030480170FDF7ECFAD8E76846017078
:1033E000D5E7002804D04069002801D001207047AB
:1033F00000207047F8B514460E460546FFF7A2FDBB
:10340000002822DDA04200DAC4B2E868AA680119E7
:103410008F1A6969002F08DC09182246304600F02F
:103420003FFAE8680019E8600CE00918E21B304632
:10343000009200F035FA009A696990193A4600F056
:103440002FFAEF600020305501E000243470204650
:10345000F8BD10B50C460346FFF774FDD9698842E4
:1034600006DD20331878002802D101206070187022
:1034700010BD10B50C460346FFF764FD99698842FC
:1034800007DC20331878012803D1002018700120B0
:10349000A07010BD7680002010B50220FFF739FC27
:1034A00000F03AF910BD10B575480123807832223A
:1034B000010274480C3100F095FA0121017000F00E
:1034C000A3FA10BD10B500F02FF9FFF7ECFF10BD07
:1034D000F0B5044693B00E20207000276770A0203E
:1034E000A081E08107202074012060741C20E0741A
:1034F000254622461F202035143228741646511EB8
:103500000B2000F07DFB002805D01222E2745EA1A2
:10351000304600F0C5F922463132511E0C2011927E
:1035200000F06EFB002805D02F743A465BA111987D
:1035300000F0B6F9E07C1A21081A05062D0E2ED0EF
:103540003E206946087001AA022000F059FB0028BD
:1035500006D00B226846027052A101A800F062FB5F
:103560006846007800281AD0A84200D2054669466D
:103570000D70E07C6D1C8555E27C204609211530DC
:103580001154E17C401C081869460A7801A900F032
:1035900087F969460878E27C801C1018E07413B043
:1035A000F0BD10B500F0B2F9032803D0052801D012
:1035B000042801D1FFF727FB10BD70B5304D002462
:1035C000E878022807D2012801D100F099F8E878BC
:1035D000401CE87000E00124204670BD0320087004
:1035E0000A204870002048820875487508220A831E
:1035F00010224A8388836422CA8320225054A02048
:10360000C882704710B50121322000F097F9FFF70A
:10361000D0FA002801D0FFF7F6FA10BD70477047C6
:10362000704710B500F072F9022801D1FFF7EBFAEC
:1036300010BD10B5FFF7E7FA10BD704710B50123B4
:1036400032220D211A4800F0CDF90121017000F05D
:10365000DBF910BD10B50A2332220E21154800F007
:10366000C1F90A210170418081800021C1807D2142
:10367000C900018100F0C8F910BD7047704770475C
:103680006A800020013000001107B75C49D204A312
:103690004071A0B535853EB0830700000303830762
:1036A000000000004441313435383020535053007D
:1036B000023400000E38000010B510460C4600F031
:1036C00025F9012809D1322201231146900200F088
:1036D00089F92178017000F097F9002010BD0020D1
:1036E000704710B505480078012804D0012000F08B
:1036F0002AF8002010BD0220F9E70000C480002055
:1037000010B50223322236211B4800F06BF900214C
:10371000018000F079F910BD10B5FFF727FDFFF724
:1037200049FDFFF750FD10BD10B5362104233222AC
:10373000880200F057F93221018010490988418040
:1037400000F062F910BD10B504460B480123322287
:103750003621C01C00F046F9047000F055F910BD88
:10376000054810B5012332223621801C00F03AF9B9
:1037700000F04AF910BD000002D800006A80002065
:10378000064C0125064E05E0E36807CC2B430C3CB4
:1037900098471034B442F7D3FCF756FED43D0020CE
:1037A000043E002003B40148019001BD551B0200F6
:1037B00003B40148019001BD0F3B030003B401486D
:1037C000019001BDCF2B030003B40148019001BD5E
:1037D000CB2C030003B40148019001BD0990020005
:1037E00003B40148019001BDC12D030003B4014899
:1037F000019001BD0921030003B40148019001BDFE
:10380000C92D030003B40148019001BD2B690200DA
:1038100003B40148019001BDEB31030003B401483A
:10382000019001BD3D32030003B40148019001BD88
:10383000D721030003B40148019001BD1F210200FC
:1038400003B40148019001BD2F2F030003B40148C8
:10385000019001BD998F020003B40148019001BDA0
:10386000938F020003B40148019001BDCD8C02008A
:1038700003B40148019001BD418F020003B4014827
:10388000019001BD2768020003B40148019001BD09
:103890003968020003B40148019001BDB7800200FD
:1038A00003B40148019001BD213B030003B401486A
:1038B000019001BD8D3D030003B40148019001BD9D
:1038C000BF22020003B40148019001BDEB260300B2
:1038D00003B40148019001BD3524030003B401483D
:1038E000019001BD2F22020003B40148019001BDE7
:1038F000DD20030003B40148019001BD533B0300E8
:1039000003B40148019001BD9D20030003B40148A8
:10391000019001BDB326030003B40148019001BD2D
:10392000FD3D030003B40148019001BDA52803003B
:1039300003B40148019001BDD5AF020003B40148B2
:10394000019001BD3126030003B40148019001BD7F
:10395000A1A5020003B40148019001BDE3A5020046
:1039600003B40148019001BD87A8020003B40148D7
:10397000019001BDA7A9020003B40148019001BD57
:1039800093AA020003B40148019001BD95AB020067
:1039900003B40148019001BDF9AB020003B4014832
:1039A000019001BD69AC020003B40148019001BD62
:1039B00017AD020003B40148019001BD77AD0200CC
:1039C00003B40148019001BDF1AD020003B4014808
:1039D000019001BD85AE020003B40148019001BD14
:1039E00011AF020003B40148019001BDB1230300EF
:1039F00003B40148019001BD49E5020003B4014848
:103A0000019001BDF9E3020003B40148019001BD3A
:103A1000E123030003B40148019001BD4BCD020036
:103A200003B40148019001BD99D1020003B40148DB
:103A3000019001BDABD0020003B40148019001BD6B
:103A400069D0020003B40148019001BD77CF0200A4
:103A500003B40148019001BD01CC020003B4014848
:103A6000019001BD29CC020003B40148019001BDC1
:103A700015D2020003B40148019001BD8DD20200AD
:103A800003B40148019001BD3350020003B4014862
:103A9000019001BDA73A030003B40148019001BDA4
:103AA0005548020003B40148019001BD1F500200B7
:103AB00003B40148019001BD7F0C030003B4014829
:103AC000019001BDAB0C030003B40148019001BD9E
:103AD000773B030003B40148019001BDD7290300DF
:103AE00003B40148019001BD7920030003B40148EB
:103AF000019001BD2129030003B40148019001BDDB
:103B0000C768020003B40148019001BD0D2C0300F9
:103B100003B40148019001BD1531030003B401480D
:103B2000019001BD1B66020003B40148019001BD74
:103B3000652C030003B40148019001BDDB2E030096
:103B400003B40148019001BD231D020003B40148E4
:103B5000019001BDC32C030003B40148019001BDD5
:103B60003B66020003B40148019001BD2B660200D0
:103B700003B40148019001BD038D020003B4014864
:103B8000019001BDCF8F020003B40148019001BD37
:103B9000E3E3020003B40148019001BD95E3020094
:103BA00003B40148019001BD533B030003B4014835
:103BB000019001BD8725030003B40148019001BDB8
:103BC0009598020003B40148019001BD9599020047
:103BD00003B40148019001BD6D9B020003B401488C
:103BE000019001BD7B9C020003B40148019001BD1E
:103BF000B7E3020003B40148019001BDF3AF020036
:103C000003B40148019001BDD129030003B4014868
:103C1000019001BD2528030003B40148019001BDB6
:103C20001522030003B40148019001BD213B0300AC
:103C300002E008C8121F08C1002AFAD17047704775
:103C4000002001E001C1121F002AFBD170470000D3
:103C500048656C6C6F0A0000AD050020E91C00206F
:103C6000D51D0020931E0020C11E0020D52000205D
:103C700039210020992100200101000A04280A04AA
:103C80000203AA0055032A00A001FFFF2C01FF0038
:103C90003F00FF03FF0100004C3D0020643D002079
:103CA000EA9000200300010053657276657220548B
:103CB00058204461746100536572766572205258D1
:103CC000204461746100466C6F7720436F6E74729C
:103CD0006F6C00B75C49D204A34071A0B535853E36
:103CE000B08307B85C49D204A34071A0B535853EC6
:103CF000B08307BA5C49D204A34071A0B535853EB4
:103D0000B08307B95C49D204A34071A0B535853EA4
:103D1000B083070002D800000127002000D800006F
:103D200035290020033800007F29002000300000E2
:103D3000972900200E300000C72A002004D8000078
:103D4000172A002005D800009B2A0020143D0020DF
:103D5000010000001C3D002001000000243D002067
:103D6000050000000000000000000000000000004E
:103D7000CC3D0020778000200600010001340000C7
:103D8000392D0020003400005D2D0020103400008B
:103D9000BB2E002000380000452E00200138000016
:103DA000EB2D0020033800006B2E002000C800001F
:103DB000972E002003D80000B936002001D800005B
:103DC000DF36002006D80000E33600207C3D0020CE
:103DD0000A000000443E002000800020EC000000AB
:103DE000403C0020443E002020900020CC000000F9
:103DF000403C002068070800202A0800E005000079
:103E0000403C0020800C0000100000B85C49D20447
:103E1000A34071A0B535853EB08307040000BA5CAD
:103E200049D204A34071A0B535853EB08307160082
:103E300000B95C49D204A34071A0B535853EB0837A
:043E40000700000077
:040000052000044192
:00000001FF
