:020000042000DA
:1000000000980020A5040020AD040020C5040020B5
:1000100000000000000000000000000000000000E0
:10002000000000000000000000000000DD040020CF
:100030000000000000000000F5040020F70400208C
:100040008F220020053103000D310300FF22002024
:10005000112300208D3103004B2300205323002067
:10006000F9040020F90400206B230020AD310300C7
:1000700091180020F9040020F9040020F904002060
:10008000F9040020F9040020F9040020FF160020E4
:1000900003170020071700200B1700200F17002060
:020000042000DA
:1001600032000000550600204F100020072E00200E
:10017000000000000000000063800200BD8002005B
:10018000490E0020FB800200198102003581020027
:100190005D810200612200203B060020350E002018
:1001A0003F0E002000000000000000003F000000A3
:1001B000F487002000080000680D0800900200008D
:1001C00068070800F405000004100800000800009B
:1001D000000000002000000048000000580000005F
:1001E0006800000004010000160100002801000062
:1001F0002E010000202A00008E2E000001000000C9
:1002000088130000D9100020E9600200FD9302006D
:100210008B1A002019280300A5740200E120002099
:1002200003000000D52002000F2E00200400000073
:10023000D74902000F490200831D020063910200AA
:10024000B7910200BF910200078202007182020092
:10025000283E0020AD830200938402004185020005
:1002600015860200378602005F860200758602004E
:10027000F9870200258902005D8A0200D38C020002
:10028000098D02000F900200438D0200278E0200AC
:10029000F98E0200478F0200BB0D0020D58F0200AF
:1002A00049510200775102002F5202001000000055
:1002B00020030000803E000000000000000000005D
:020000042000DA
:1002C000504600030003983A6400F401B80B000C98
:1002D000B80B120030003000CD009A01120024004B
:1002E00030006400B0001800280012001200D0078F
:1002F0000000FFFF00000000000000000000000000
:100300001F000002444131343538302D30310000B7
:1003100000000000000000000000000000000000DD
:0403200000000000D9
:020000042000DA
:10034000FFFF010000C201000000000000000000EB
:100350000000F4010100011B0A071AFFD200021578
:10036000585CDE931B0142CC9A1325009BEDC65EC0
:1003700000010002C5000000000009FF00605257A4
:100380002D424C450000000000000000000000006D
:100390000000000000000000000044413134353806
:1003A00078000000000000000000000000000000D5
:1003B000000000000000000000000000000000003D
:1003C000000000000000000000000000000000002D
:1003D0000000000000000000010000CAEA80D00711
:0403E000064064323D
:020000042000DA
:100440000348854603F084FA00480047C7200200AD
:10045000009800200F4906200880FF200E49013037
:1004600008600E4988683E2290432E308860002242
:10047000052000070280018A0F231B021943018215
:1004800001210748C90404C1401E0028FBDA62B6F6
:10049000704700000034005080E100E0003300505D
:1004A000FF0B00001548804715480047042071469F
:1004B000084203D0EFF3098012490847EFF30880A0
:1004C0001049084704207146084203D0EFF3098021
:1004D0000D490847EFF308800B490847042071468F
:1004E000084203D0EFF3098008490847EFF308807A
:1004F00006490847FEE7FEE7FEE700005504002036
:1005000041040020550A002011050020C3050020E9
:1005100005221207518A8023194351821249036828
:100520000B6043684B6083688B60C368CB60036972
:100530000B6143694B6183698B61C369CB6108625D
:100540000A48836A4B62C36A8B62036BCB62C36BDC
:100550000B63436B4B63806B8863908A800601D585
:1005600000BE7047FEE700000018080000ED00E044
:100570008307FF22DB0E9A408907090E9940002865
:100580000BDA0007000F08388308CA489B001818C8
:10059000C36993430B43C36170478308C6489B00FC
:1005A0001B1818689043084318607047028908892F
:1005B000C249101A80B2884201D901207047002038
:1005C000704781692039897F082904D2BC4A890093
:1005D000515881617047FEE710B5BB48B9490161C8
:1005E000BA494161BA498161BA49C161BA490162F6
:1005F000BA494162BA498162BA49C162BA490163E2
:10060000BA494163BA498163BA49C163B849AE483E
:100610005C3140300160B8494160B8498160B849F7
:10062000C160C8160124B749E4060C600021FFF739
:100630009FFFB4488038046010BD10B5B249002057
:10064000086000F0B5FB01208007016B49004908F4
:10065000016310BD1CB5AD4901200870AC490820EC
:100660000880052424076088AA4E0425002823D189
:10067000708801210843708000200190401C019087
:100680001428FBDB608980088000401C6081608941
:100690004006FCD56089284360819F48608060895E
:1006A000A8436081A08A0006FCD56089800880008C
:1006B000608160890006FCD503F05CF900F09EFDC6
:1006C00000F0A6FA9548017801709548017801700C
:1006D000012003F055F9FF2701370D20394680012D
:1006E00003F054F901F018FD00F01AFC00F0DAFAFA
:1006F000042000F0D8F8072000F0D5F80A2000F018
:10070000D2F8062000F0CFF80B2000F0CCF8012042
:1007100000F0C9F8022000F0C6F8002000F0C3F88D
:100720008048006803F038F9B80501683943016072
:1007300000F015F90121C81EFFF71AFF02F0B2FB05
:10074000FFF77BFFA220E08272484188E0229143BC
:10075000A0314180012003F025F9564E022720895F
:1007600000061BD501208007006B000416D403F09F
:100770001FF9C00712D1042003F020F9019003F003
:1007800023F90198002809D000200190042101A834
:1007900003F020F9002801D000F01DFB6248017829
:1007A000002901D00021017002F042FF72B602F070
:1007B000F7FF01F0D7FC69460870042806D002282C
:1007C0000CD003280AD001286AD06AE05748007884
:1007D000012802D00320087000E00F70208A28430F
:1007E00020825348C0690128087811D9032844D1D0
:1007F00003F0F6F8002840D003F0F8F800283CD0C9
:10080000032003F0F9F8002837D04A48077008E0C1
:10081000032832D103F0F0F800282ED045490120FA
:100820000870306928433061608A202188436082E3
:10083000208A3843208268460178608A02291ED0C7
:10084000284360827F202288800180231A432280EF
:100850000022521CD2B20A2AFBD3628A10231A4306
:100860006282354A401E5061208880229043208059
:1008700002290AD0032908D00DE06846C6E72843BC
:100880006082608A10218843608222484188FF226A
:1008900001329143418030BF3069A843306100E0AC
:1008A00030BF62B65BE7C106C90E0120884023490C
:1008B0000860704700ED00E000E400E030750000E3
:1008C000083E0020942703000084004062B600DF49
:1008D00028A30200704701DF1CCA0200F8BD02DF36
:1008E00040CB0200F5E703DF84D4020004DF89B0C7
:1008F000BC330200F8BD05DFF8BD06DFEC0C0300D9
:1009000070BD07DF80E100E08C030800008000205C
:1009100000330050200000501605000000000800C1
:10092000202A0800049000205A8000205402080069
:10093000E0010020C40608000080004080E200E0E2
:10094000704700003E480178002902D080214170A4
:1009500070473C49002008703B49C87070473848D0
:100960000178002902D0812141707047354901206A
:1009700008703549C870704731480178002902D0A5
:100980008221417070472F49022008702E490120B2
:10099000C87070472A488178002904D0491E09068A
:1009A000090E817017D142780021002A04D09207E5
:1009B000920F0270417004E00278002A01D0521EAA
:1009C00002701206120E017005D0012A02D0022A0E
:1009D00001D1D1E7C3E7704710B5194CA078401C8E
:1009E000A0702078002805D103F00CF8421CFFF716
:1009F000A9FF227010BD12490120C870704710492C
:100A00000020C87070470E48C07870470020EFF390
:100A10001081012282F31088052212071289120622
:100A200005D40A48028901231A4302811846002985
:100A300000D0012181F31088704705480078704785
:100A40000180002054020800C60608000033005050
:100A50004C80002005221207118A042319431182B9
:100A6000118A0223194311821189402319431181EC
:100A7000184B01211960184B08211980518A8023D5
:100A800019435182154903680B6143684B618368C0
:100A90008B61C368CB6103690B6243694B628369F5
:100AA0008B62C369CB6208630D48836A4B63C36A78
:100AB0008B63036BCB63C36B084940310B60436BA3
:100AC0004B60806B8860908A800601D500BE7047BD
:100AD000FEE7000080E200E000330050401808000C
:100AE00000ED00E070B5684800220169D24300299A
:100AF00001D0114600E00121CB170C0F1B0123434D
:100B00000C01016161490D684E682C4333430C6050
:100B10004B604369002B01D0144600E00124E31729
:100B2000E50E5B012B4344610D6864014E682C4364
:100B300033430C604B60C368002B01D0144600E0C7
:100B40000124E317650FDB002B43C4600D68E4004C
:100B50004E682C4333430C604B608368002B00D1FC
:100B600001228260D017930F800018430C68920016
:100B70004B68224318430A60486070BDF8B50024F2
:100B800003252D0202232A4604212046009400F06A
:100B9000D8FB01231E02324605210020009400F0FC
:100BA000D0FB14232A4603210020009400F0C9FB47
:100BB0001323324602210020009400F0C2FBF8BD4E
:100BC0007CB501263248F50405600221002000F0C2
:100BD000E0FB0024002815D00221002000F0D9FB02
:100BE000002809D002F041FD009401230194132252
:100BF0000221002000F0EEFB2648056024488038E2
:100C000005607CBD02F046FD002300960194EEE7EE
:100C10001CB505242407208A022188432082A08A4B
:100C20000007FCD5FFF7D8FCFFF7A8FFA0888021BC
:100C30000843A0800321092000F0A7FD608A20213D
:100C40000843608202F04AFD1349132000F03DFD85
:100C50000221002000F09DFB002400280ED002217C
:100C6000002000F096FB002807D000940123019497
:100C700013220221002000F0ADFB1CBD0120002347
:100C800001940090F4E700002890002020900020BC
:100C900080E100E080E200E0C10B002093490020E9
:100CA0004860704770B505200007018930229143E4
:100CB000018101898022114301810189890889000C
:100CC000491C0181018908231943018188490C8845
:100CD00014430C80448A9C43448205894024254364
:100CE0000581058A0426B5430582858AAD07FCD5B2
:100CF0007E4E002575600D88012635430D804D8997
:100D0000AE057C4D0E8801D52E4300E0AE430E802B
:100D10000D887826B54328350D800D880626354385
:100D20000D80458A1D4345820B8893430B800289C1
:100D3000A24302814889800503D56D4905206031B1
:100D400088800120800701688215914301606A480C
:100D500001683F22520291434214891801600168E0
:100D600002031143016070BD052000070188302295
:100D7000114301800188032211430180704705203F
:100D80000007018830229143018001888908890089
:100D9000018070470321594809028181082242805D
:100DA0000021491C9629FCD3828070477047704708
:100DB00010B5534802F02CFE10BD70B54C4C608845
:100DC000C006050F02F02AFE61881E2291436A00C8
:100DD0001143618070BD10B54A490120C863C86BDA
:100DE0000028FCD101208007C16947480268914270
:100DF00001D20022026019238A1ADB019A4212D31F
:100E0000016002F011FE414A1188884201D9411A5D
:100E100000E0091A89B2182905D31080012002F0D8
:100E200009FE02F00DFE10BD08B5009808BD08B51A
:100E3000009808BD08B502F009FE009008BD08B58D
:100E400002F00AFE009008BD08B5314901204A6948
:100E50005206D20F13D04A699206D20F0FD0002249
:100E60000A610092FF225F32009B5B1C0093934259
:100E7000FAD34969C907C90F02D002F0F3FD002077
:100E800008BD40183721C00009014018704710B54F
:100E9000204A0020117800290DD01A490120C8638A
:100EA000C86B0028FCD101208007C0691A49096875
:100EB000884201D2012010BD0020107002F0A2FD76
:100EC000022803D002F09EFD01280BD1134908200F
:100ED000088005200007818A8906FCD4418A802287
:100EE00091434182002010BD0020704708800020FF
:100EF0002000005000100000000200402030005090
:100F00007D120000C00000407C0408007804080046
:100F10000010005000800020983F00200033005057
:100F200030B58B4A8B49D005048880231C4304804C
:100F3000894C65892D0701D4521EFAD2874C0122B3
:100F40002260874C0A882280864A4988118001885D
:100F50009943018030BD002070477047704770474B
:100F60000020704701218907086B0722104308639E
:100F70007047704710B57D497B4808607C494C201C
:100F800008807B4B7B4A203B1A827C497A48488008
:100F90007C487B4901807A49193141802221418175
:100FA000812189000182784941827849018376490B
:100FB0001131418373497648203188804121754839
:100FC000090181807449C180734C1034C48101824D
:100FD0004182891C8182611FC182FF2146310183C8
:100FE0006E4941836E49592008806D486D4C203010
:100FF0000480432444806C4C4C82D5218180FF21A5
:10100000D331018169494181694981816A496948CE
:1010100008805748694960384180C18810242143BD
:10102000C18060490A390181514C6549403C618069
:101030005A82082141814B48594900884039088229
:10104000474860490088088010BD4008704700B5D7
:101050008BB05D4A42625D4A82625D4A42615D4A8E
:10106000C2625D4A02605D4A02625D4A42605D4A58
:10107000C2613E4A3C48002110603C484038026B47
:1010800003129A430263426B1F231B049A430323F8
:101090001B04D218426354480268C3129A43026088
:1010A000026803139A43026068464154491CC9B25E
:1010B0002829FAD3014628224C4802F0D9FCFFF730
:1010C00059FF02F0B1FC4A490880002002F0B2FC4E
:1010D00002F0B6FC0BB000BD10B5244A0F21224827
:1010E0000902106021484038426B1F231B049A43B9
:1010F00003231B04D218426300060268D208D20000
:10110000026005200007028992089200521C0281A9
:10111000028908231A430281028A0A4302820E4886
:101120004189890504D501887822914308310180DD
:10113000FFF720FF2F48006F0078002804D02E48CA
:1011400000880B496039C880012002F02BFC10BDDB
:10115000A0860100087F04002000005000800040AD
:10116000560208004A0308004C055407800000405E
:10117000602C00507F7F0000AC290000002200504E
:1011800009090000002400502204000030D00000B3
:10119000EE110000002500502E0200004420000047
:1011A000402800500D95000002420000E4DC0000E1
:1011B0001092000053780000002A00508B100000AD
:1011C0009DD5000000260050570F00205B0F002027
:1011D000610F0020650F00205D0F0020730F0020BD
:1011E0005F0F00204B10002000020040200008008C
:1011F00078040800E001002052040800FEB5002039
:10120000FE4E034628220021424392198C00491CBD
:1012100013510A29FADB401C0428F3DBFFF762FCB8
:10122000F648002208380260426015460024F4485F
:101230006900475A0120A04080B207421CD02820F4
:1012400068438019A1004058411C19D0002810D0D3
:10125000C117224602F012FC2A0102F00FFCE74BF4
:10126000083B1A685B681043E44A1943083A106067
:101270005160641C0A2CDDDB6D1C042DD6DBFEBD29
:101280000095019400BEE3E7F8B5164604460D4606
:101290000A461F460120002102F0F0FB220102F065
:1012A000EDFBD64B083B1A685B68104019400843B9
:1012B00000D100BE032C00D10424D24960014018A3
:1012C000690008183E43C680F8BD70B504460D4657
:1012D0000A460120002102F0D1FB220102F0CEFBE0
:1012E000C64A083A1368526818401140084300D1B2
:1012F00000BE032C00D10424C24960014018012122
:10130000A940818070BD70B504460D460A46012093
:10131000002102F0B3FB220102F0B0FBB74A083A09
:101320001368526818401140084300D100BE032CD6
:1013300000D10424B349600140180121A940418033
:1013400070BDFFB581B00C4605460A461F46012018
:1013500000210A9E02F092FB2A0102F08FFBA74BAC
:10136000083B1A685B6810401940084300D100BE72
:10137000002E2146284602D0FFF7C5FF01E0FFF707
:10138000A4FF3B4621462846039AFFF77DFF05B0A0
:10139000F0BD70B504460D460A460120002102F05A
:1013A0006DFB220102F06AFB944A083A1368526806
:1013B00018401140084300D100BE032C00D1042482
:1013C00090496001401800880121A940084000D0E0
:1013D000012070BDFFB514460D4606460A4681B091
:1013E0000120002102F04AFB320102F047FB834B4F
:1013F000083B1A685B6810401940084300D100BEE2
:1014000081A000680090814880892346133BFF2219
:1014100001329A400B999043002901D0012700E046
:101420000027D10701D0002138E0910701D5012123
:1014300034E0510701D5022130E0110701D5032125
:101440002CE0D10601D5042128E0910601D5052123
:1014500024E0510601D5062120E0110601D507211F
:101460001CE0D10501D5082118E0910501D509211D
:1014700014E0510501D50A2110E0110501D50B2119
:101480000CE0D10401D50C2108E0910401D50D2117
:1014900004E0510401D50E2100E00F218F405B498B
:1014A0003843888188890B9F80098001384388816F
:1014B0000F8A9743D00701D0002038E0900701D56C
:1014C000012034E0500701D5022030E0100701D59B
:1014D00003202CE0D00601D5042028E0900601D599
:1014E000052024E0500601D5062020E0100601D595
:1014F00007201CE0D00501D5082018E0900501D593
:10150000092014E0500501D50A2010E0100501D58E
:101510000B200CE0D00401D50C2008E0900401D58C
:101520000D2004E0500401D50E2000E00F200A9A9F
:10153000824017430F820F8A01221046984087434A
:10154000C30701D0002038E0830701D5012034E033
:10155000430701D5022030E0030701D503202CE02A
:10156000C30601D5042028E0830601D5052024E028
:10157000430601D5062020E0030601D507201CE024
:10158000C30501D5082018E0830501D5092014E022
:10159000430501D50A2010E0030501D50B200CE01E
:1015A000C30401D50C2008E0830401D50D2004E01C
:1015B000400401D50E2000E00F20049B83401F4310
:1015C0000F821248610040380818418B6B46890928
:1015D0009B5D89015B1919434183A007C30EFF215D
:1015E000994080209840002C18DA23071B0F083BF5
:1015F0009D08074BAD00ED18EB690BE0289000202B
:101600003E3E00200030005001090F190014005028
:1016100000ED00E08B430343EB6107E0A5083D4B81
:10162000AD00ED182B688B4303432B60E006C00E22
:10163000824039480260AAE610B5384CE38901229D
:101640001146133881408B43C80701D0002038E091
:10165000880701D5012034E0480701D5022030E099
:10166000080701D503202CE0C80601D5042028E096
:10167000880601D5052024E0480601D5062020E093
:10168000080601D507201CE0C80501D5082018E090
:10169000880501D5092014E0480501D50A2010E08D
:1016A000080501D50B200CE0C80401D50C2008E08A
:1016B000880401D50D2004E0480401D50E2000E087
:1016C0000F2082401343E38110BD154A800080182B
:1016D00080384163704710B50446FFF7ADFF1049ED
:1016E000A00040188038406B002801D0804710BD12
:1016F000E106C90E012088400A49086010BD132088
:10170000E9E71420E7E71520E5E71620E3E71720CF
:10171000E1E7000000E400E000E100E00014005018
:10172000C890002080E200E0AD484069C007C00FCB
:1017300001D00020704701207047A949222008618C
:10174000704700B5A649012248694006C00F16D06F
:1017500048698006C00F12D0FFF7E6FF00280ED0C0
:101760000869022398430861FF2387330220401C45
:101770009842FCDBFFF7D8FF002803D000E00022EE
:10178000104600BD22200861F9E730B4944A9389DD
:101790008024A34393818723138100239380958919
:1017A0002543958193809380108091819089A043F7
:1017B00090818C49600108608B490A684024120AB4
:1017C000120222430A60874980390860874908600D
:1017D00087480370203843618361036143608360FD
:1017E000036030BCADE77E4911200860704700B54A
:1017F0007B4A012150694006C00F14D05069800611
:10180000C00F10D0FFF790FF00280CD013201060FD
:10181000FF2387330220401C9842FCDBFFF784FF44
:10182000002803D000E00021084600BD1120106010
:10183000F9E76B48016902229143016170476C48E6
:101840002038006870476648A02101614169890617
:10185000C90FFBD041694906C90FF7D0704710B5D1
:10186000634C203C216114340DC45D480121426861
:101870008A430A43426010BD10B55D4C203C02C44F
:101880000DC457494868022290431043486010BD78
:1018900010B5534881680907090F01291FD0022993
:1018A00021D004291CD00C2919D1514909780129CA
:1018B00013D141690906C90F0FD04D4900222039C3
:1018C0000A614A6183885B085B008380CB69002BD7
:1018D00003D0CA6100210120984700F019F810BD1B
:1018E00000F034F810BD00F053F810BD00B53C48CE
:1018F00041694906C90F09D040698006C00F05D06B
:10190000FFF712FF002801D0002000BD012000BD1C
:1019100030B4374800212038314B364C09E01A6882
:10192000227045692A7002696D1C521E4561491C6E
:1019300002615A69D207D20FF1D143691A7042612C
:101940000261C369C26130BC0220184730B4284824
:101950000021284C2038224B0BE01A682270456980
:10196000491C2A7002696D1C521E45610261002AE1
:1019700005D05A69D207D20FEFD130BC704700238F
:101980004361C269002AF8D0C36130BC002010470F
:1019900030B41748124D20381149603584680CE086
:1019A00043681A780A6002685B1C521E436002603A
:1019B000002A02D12278002A04D0AA8B9207D20FE3
:1019C000EED1DAE7002242604B680224A3434B6069
:1019D000C1680029D1D0C26030BC00200847000097
:1019E0000010005080E100E00CE400E080E200E044
:1019F0003C800020DC90002070B5EFF310850120C2
:101A000080F31088264802F03FF80446002D1DD0D0
:101A1000012080F31088002C23D020462038C08B72
:101A2000204988421DD16189208902F033F80500E0
:101A30000ED021461031A38962892089A847002849
:101A400006D001280DD002280BD105E00020E0E7E8
:101A5000204602F025F804E0114821460C3002F03F
:101A600025F8EFF31084012080F310880C480068FB
:101A7000002802D1012002F01FF8002C03D0012021
:101A800080F3108870BD0020FAE710B5BC2106482D
:101A900002F018F80549012002F01AF810BD000004
:101AA000A80508003883000004060800F919002082
:101AB00070B516460D46104602F010F8002869D0A1
:101AC000340A304602F00AF8012812D0A87A1E28FB
:101AD00011D029460A310E2845D019DC801E03009A
:101AE00002F002F80B255829582D58315839583D25
:101AF0005800022070BD3146274801F0FBFF00214D
:101B0000204601F0FDFF0221304601F0FFFF41E0D9
:101B100018283CD006DC102819D012282BD0162803
:101B200038D130E0522822D0D22833D127E02046C5
:101B300001F0F2FF2EE0204601F0F4FF2AE02046FB
:101B400001F0F6FF26E0204601F0F8FF22E02046F3
:101B500001F0FAFF1EE0204601F0FCFF1AE02046EB
:101B600001F0FEFF16E0204602F000F812E02046E9
:101B700002F002F80EE0204602F004F80AE02046E7
:101B800002F006F806E0204602F008F802E02046DF
:101B900002F00AF8002070BD01280000F3B581B002
:101BA00001980C460102CA1D0E310223344802F08E
:101BB00001F8047001990546022732488E00002C76
:101BC00006D0042C16D0062C10D0072C3FD108E0EC
:101BD000815905224968897C114069708059C77311
:101BE00035E0084601F0ECFF687030E080590F21C5
:101BF000C1732CE0044680594068417C012902D120
:101C0000007E01280FD0019801F0E0FF012100289B
:101C1000A0590BD04268D07D00281CD001281AD0D2
:101C200004280DD00FE0002068700DE04068C27DF0
:101C3000022A01D0042A06D1007C02280BD102E03E
:101C4000107C022807D06F70A1590320C873284662
:101C500001F0C2FFFEBD6970F6E701460A78012077
:101C6000042A01D9002070474A78002A01D0012AAD
:101C7000F8D10A79082AF5D849790829F2D87047A5
:101C8000021C000028050800FFB589B00D460020A1
:101C90006946059008720B98000A009001F096FFC3
:101CA00007460B9801F01AFF00287DD00B98297881
:101CB000000A8400784E012963D0042904D0062943
:101CC00048D0072968D125E03059C17B032901D0CC
:101CD000042961D1697800291AD040681022A91C12
:101CE00001F0C6FE002F06D03159C87B032807D06B
:101CF000042808D050E03059C07B032803D04BE0C3
:101D00000B20C87348E00521009801F06BFF43E009
:101D10000120B6E03059C07B0E283DD1009801F07B
:101D20004FFF002103E02A18401C9170C0B2102818
:101D3000F9D3688A69460883294606A8082214311F
:101D4000023001F095FE06ABAA1C3946009801F05E
:101D50004FFF21E03059C07B0F281DD1AA1C0A215A
:101D6000009801F04BFF002F04D03946009801F095
:101D70004BFF11E000231A463946009801F04AFF54
:101D80000AE0012F08D10B9801F0A8FE01281CD011
:101D9000002801D0022005906846007A002811D062
:101DA00002AA0521009800E00CE001F027FF684638
:101DB000027A602002436846027201233946009885
:101DC00001F028FF05980DB0F0BD3059C07B022806
:101DD000E2D16878002851D002210B9801F096FEDC
:101DE000305907224068A91C173001F041FEE878FD
:101DF000002804D130594068407C01283AD000982E
:101E000001F00EFF002837D0297A009801F00EFF6C
:101E1000002833D0009801F00FFF0121009801F055
:101E200011FF00282CD030594068417E00292BD06A
:101E3000042929D0C17E027D1140C1763059406805
:101E4000017F427D114001776846007A0028A7D1C2
:101E50003059022142680098173201F0CFFE305904
:101E600041684031897B002913D004210098FFF795
:101E700095FE91E7022004E0062002E0082000E041
:101E80000320694608728BE70021C176305940680B
:101E9000D9E70B21C1737FE728050800F8B50D4687
:101EA000064681002B48EA884458521C20686B89FA
:101EB000018F294F51430091014640314A89C98918
:101EC000511A8AB2991A89B2B94214D29A4212D0DE
:101ED000294601F0BDFE2D892049009801F0BEFE83
:101EE0002818801C4034E0823002401C80B204215B
:101EF00001F00CFEF8BD2821304601F0B5FEF8BD1A
:101F0000F8B50546870013480C46C059C9880068D3
:101F1000114E024640325389D2899A1A92B28B1AD4
:101F20009BB2B34211D20B4E8A420ED001F0A2FEF8
:101F3000F05905225F30611C01F09AFD2802401C17
:101F400080B2052101F0E2FDF8BD2821284601F00C
:101F50008BFEF8BD4C030800FF7F00001027000037
:101F600070B50446007800250D2801D00A2200E053
:101F700002225A494B7A002B06D00D2804D0637CEC
:101F8000032B01D0432551E0097A8A4339D10D282A
:101F900009D00E2802D00F2803D134E0607C03283A
:101FA00004D3402542E0607C0328FAD8A07C0428B2
:101FB000F7D20A2908D0607C012822D0022820D03C
:101FC0006078032809D811E001F05AFE012806D1F3
:101FD0006078032803D0002801D0492526E001F0CD
:101FE0004FFE002802D160780228F6D83020035D29
:101FF00022462046E17C3132143000F019F80546C3
:1020000014E0422512E001F03BFE012807D1607880
:10201000052804D1A01D01F039FE0028DDD001F013
:102020002FFE002802D160780228D6D8284670BD3D
:10203000FFB5002086B001216A4611700446059163
:102040000021002C06D0089D099A1F239A4234D9FA
:10205000402032E01C23069D079AF7E76B185E7854
:10206000330001F041FD1D2610101010101010104B
:102070001026262626262626262626262626101042
:10208000101010102600059B03E06F46FF5CB7425E
:1020900004D05B1E5BB2002BF7DA03E0002B01DB00
:1020A0004A2006E0059B6F46FE54059B5B1CDBB295
:1020B00005936B5C491C5918C9B2914201D20028A2
:1020C000CCD0914202D04A200AB0F0BD641CE4B2E8
:1020D000022CF9D20028B3D0F6E7000098050800DA
:1020E00070B516460C46054601280FD10622174941
:1020F000174801F0D1FD002808D0062214493046C7
:1021000001F0B6FC06202070002070BD324621464A
:10211000284601F0C7FD70BD70B50E480E49C405D4
:10212000228880252A4322800C4A53891B0701D428
:10213000401EFAD20A4A012010600622044801F02B
:1021400097FC2088A843208070BD0000383E030023
:1021500040800020A0860100D47F040020000050B1
:1021600000800040F8B5374C0026606D0090FEF707
:102170004AFC354D002802D12879022801D10020DF
:102180000090FEF784FE002859D101F091FD00284F
:1021900055D0E8780126002851D005273F07B88A96
:1021A000C00701D004264AE001F002FC002846D115
:1021B00026488069002801D0606D0090A9786846A3
:1021C00001F07CFD00283AD0A978684601F002FCB5
:1021D000002834D001208407E16B890A8902014379
:1021E000E163E06B1A490840972189020843E063E4
:1021F000E06B0721C002C00A49050843E06300986C
:102200000426C002642101F029FD1249401E086025
:102210002979002900D0012101F056FD0E48C06A3D
:102220008047206B0004C00FFBD00C480168C90533
:10223000FCD501F04FFD3889802188433881304634
:10224000F8BD000060020020C6060800A8050800CE
:10225000FF03E0FF488000201C0708000002004048
:1022600010B50124A407A06BFEF7E9FD534901F066
:10227000F5FC27221201511A00D10121504A506069
:102280001160206B082188430843206310BD38B5D6
:10229000002000904B4908200880FEF765FD0524CA
:1022A000240702E000BF00BF00BFA08A0006F9D5E6
:1022B000608980088000608143484188490849005E
:1022C0004180FEF75CFDA08A400701D5FEF7A0FC27
:1022D0002089802108432081208A0421884320828C
:1022E000A08A8007FCD5394948050A68D20202D481
:1022F0000269520702D4009A002AF6D038BD10B500
:1023000001F0EEFC01F0F2FC31490120087010BD33
:1023100010B501F0F1FC05200007418A80229143AD
:10232000418228480189490849000181D005816915
:1023300004221143816101F0E5FC01F0E9FC01F0A8
:10234000EDFC23490020087010BD10B501F0ECFC35
:1023500010BD10B501208007008A000704D501F0E8
:10236000E9FC1B490420087010BD70B519480088AD
:1023700085061648AD0E44681748006F007800289F
:1023800002D1284601F0DCFC14480089104EC0053B
:1023900007D520060BD5E00709D0284601F0D6FC6A
:1023A00003E0200603D5E00701D0032030702004AD
:1023B00003D5E00501D50220307070BD7102000028
:1023C0004000004000330050200000500002004058
:1023D0004C80002000200050E0010020002C005024
:1023E00008B5002002460090244B3621244800F016
:1023F00083FC08BDFEB517460C4606464A88098888
:102400001A23204801F0D6FB0546207901F0A4FCF0
:102410002880AF70002F0BD0002000900346618809
:102420000222174800F090FC284601F0D5FBFEBDC3
:1024300031461A3116220F46281D01F019FB394684
:10244000304600F050FA10A000680C270097019069
:10245000308C0223401C81B201AA204600F0EFFA22
:102460000097B08D0223401C81B201AA204600F0E3
:10247000E6FA6088012101F049FBD5E7483E0020DB
:102480009C3F002001D800000100000010B5B748B3
:102490000C461146006800F0D3FBC1880522D20229
:1024A000914206D12188418361888183417E491C04
:1024B0004176002010BD70B588B01D4616460C460A
:1024C000088801F04FFC014668460176C682858285
:1024D000A749002008703023224605A9A34800F030
:1024E000DFFB02468C2804D0002A05D005A9002075
:1024F00014E0012008B070BD9C483146006800F02F
:102500009FFB0546A07800280BD028461622211DE7
:102510001A3001F0ADFA002205A92846FFF76AFF3C
:1025200015E094A30FCB01AC0FC40520C002E880D6
:1025300028460830102201A9044601F099FA2146E4
:10254000284600F05EF90221304601F0DFFA002053
:10255000D0E71CB585480C461146006800F070FBBA
:102560000246183000940190908B864B03211E3256
:1025700000F010F900201CBD70B586B014460D4661
:10258000104601F0ABFA064678482146006800F094
:1025900057FB0446022E02D0012E38D06BE068783B
:1025A0000A2801D0002866D172A30FCB02AD0FC557
:1025B0002046102202A9083001F06EFB00285AD1F3
:1025C0000521E088C902CD1C884214D1608B002807
:1025D00008D0607E012807D9842221460846FFF7EB
:1025E00009FF48E08322F8E721461A31204600F02F
:1025F000DCF9E5803FE0A8423DD12146614A1E3129
:10260000032000F01AF90200E7D16276E5E72878A6
:102610000D2830D1564E3078401E0006000E307026
:1026200029D159480078012825D1584800F0BEFE2C
:102630004A2820D9802800D980201B21143801F095
:102640000DFB1B2148431430C2B201A94F4800F0D2
:10265000E1FE05460D2000902B46E18C2046019AB4
:1026600000F0EDF92946494800F0F6FE3078401CAC
:10267000307001F024F8002006B070BD1CB5088849
:102680000023009042490193384800F0E1FA00200D
:102690001CBD10B535480C461146006800F0D0FA54
:1026A000828DA1888A4204D1A179374800F0EDFEDD
:1026B00006E0008C884203D1A178A01D00F05BFFEA
:1026C000002010BD7CB529481146006800F0B8FA1A
:1026D0000646362001F002FA012830D1244D287830
:1026E00000282CD128480078012828D1274800F05C
:1026F0005DFE002823D0802801D9802001E0142825
:1027000006D31B21143801F0A9FA1B2148431430C9
:10271000C2B201A91D4800F07DFE04460D200090C4
:102720002346F18C3046019A00F089F9214617487A
:1027300000F092FE2878401C287000F0C0FF0020B6
:102740007CBD38B509480C461146006800F078FA9F
:102750000D210091818D0123224600F070F904487B
:102760000178491C0170002038BD00009C3F00200A
:102770004D800020B75C49D204A34071A0B53585D7
:102780003EB08307583E002067800020AC800020C8
:1027900002D80000FFB581B00A9E154670790F4639
:1027A00010282CD1002428E01220049960434218FC
:1027B00010231946B01D01F0DBFA00281BD020467B
:1027C0000622318850432952728841194A80327951
:1027D0000A712B5C019AD21A521C4A710B99097822
:1027E000A14206D006225143285C6A5C801A49192E
:1027F00048710B980470641CE4B2BC42D4D305B099
:10280000F0BD70B5428800790D46010216232A48B2
:102810000C3101F0CFF904460320207001206080C4
:10282000801EA0801020607002462946A01D01F085
:102830001FF9204601F0D0F970BD70B505460020A3
:1028400003460FE006245C430E5B002E0FD01226D9
:102850005E43B6186418767C2479A64300D08520A0
:102860005B1CDBB2AB4201D20028EBD070BD12245E
:102870005C43A418247CFF2CF2D18320F0E770B5D0
:10288000428800790D46010216230B480C3101F0F5
:1028900091F904460620207001206080801EA080EF
:1028A0001020607002462946A01D01F0E1F8204684
:1028B00001F092F970BD00000230000010B54288AE
:1028C00000791C4601020823FE480C3101F072F920
:1028D000082101700121417000218180C180448064
:1028E00001F07AF910BD10B50C460988002910D006
:1028F0004288007906230102F2480C31401D01F0A4
:1029000059F910210170218841806188818001F08E
:1029100063F910BD10B50C460988002910D0428813
:10292000007906230102E7480C31401D01F042F90D
:1029300011210170218841806188818001F04CF96A
:1029400010BD10B5428800790C460102DD4808230D
:10295000401F0C3101F02EF90246032010700120B7
:102960005080801E9080022050709471210AD17195
:10297000104601F031F910BD10B5428800790C46BF
:102980000102D0480823401F0C3101F013F9042143
:10299000017021884180618881800221417000217D
:1029A0008171C17101F018F910BD10B5428800792C
:1029B0000C460102C3480823401F0C3101F0FAF80D
:1029C0000521017021884180618881800221417048
:1029D00000218171C17101F0FFF810BD70B50D4685
:1029E00009886A796B888A1801790024090240886D
:1029F0000C31521E5B1C9A4216DB0246B14808237A
:102A0000401F01F0D7F80146072008706A88521C61
:102A10004A8028886A798218521E8A80022048706B
:102A20008C71CC71084607E00A4601460320022358
:102A3000000301F0BFF8447001F0CEF870BDFFB59F
:102A40000E46194642881D460A3100798BB20102B2
:102A50009C4881B0801C0C310A9F01F0ABF800212A
:102A600081800181077046800446C5800120607026
:102A700020462A460A30039900F0FAFF204601F06A
:102A8000ABF805B0F0BD1CB56B461A71120A5A714D
:102A90000C220092022301AAFFF7D1FF1CBD70B5E2
:102AA0000546002003460EE006245C430E5B002E24
:102AB0000ED09E00B6186418F6782479A64300D08C
:102AC00085205B1CDBB2AB4201D20028ECD070BD8C
:102AD0009C00A418A478FF2CF3D18320F1E7F0B573
:102AE00005460020044611E066008E5B002E0BD1E7
:102AF000A600B618B778FF2F06D1F67806277E43D2
:102B00009E5B002E00D08320641CE4B2AC4201D254
:102B10000028E9D0F0BDFFB581B015460F4600246E
:102B20000A9E26E00498A100425A7179B01D01F076
:102B300025F900281BD0204606223188504329520F
:102B4000728841194A8032790A712B5C019AD21A33
:102B5000521C4A710B990978A14206D006225143B2
:102B6000285C6A5C801A491948710B980470641CCF
:102B7000E4B2BC42D6D384E7FFB581B01D46164609
:102B80000746002416E0A0008119CA780A998A42F3
:102B90000ED1325AA978E81C01F0F0F8002807D0CD
:102BA00002996000095A002902D102992A880A5222
:102BB000641CE4B2BC42E6D363E7F8B500240546E2
:102BC000002815D04048C069884211D928680028DB
:102BD0000ED08F00C659002E0AD0002A01D03046F0
:102BE0009047304601F0D0F829680020C85100E035
:102BF00081242046F8BD70B58124054600281DD0EB
:102C0000314EF069884219D92868002816D0284624
:102C1000FFF7D3FF040011D10146F26904E08B00F5
:102C20002868491CC058C9B28A4202D90028F6D087
:102C300004E0002802D1284600F0FBF8204670BDD1
:102C400002460020002A02D0080A8000105870476F
:102C5000FFB581B007461E460D46039800F03EFFC3
:102C6000B0421CD038680399FFF7EAFF040016D081
:102C7000628821880423284600F09CFF05460A98B4
:102C8000288060880B9A010A3846FFF7B4FFA870C5
:102C9000284600F0A1FF3146039800F037FFF0E628
:102CA000F8B50C7915460E460746FF2C21D07088E2
:102CB000010AA1420ED02102C0B201433288284647
:102CC00004E0000007300000E001002001F062F89D
:102CD0008C250FE01A462146384600F0B4F805006E
:102CE00008D13868A10040580622314600F0C0FEE5
:102CF00000E089252846F8BDFFB507460068684D05
:102D000081B00E4600280ED0002406E02146384649
:102D10000A9AFFF752FF641CE4B2E869A042F5D8B2
:102D2000384600F086F8F0B2049901F039F8002432
:102D300006E020023043039900F0E8FE641CE4B290
:102D4000E869A042F5D89CE6FFB581B01F4615465C
:102D50000C4608460A9E00F0C1FEA84208D139463A
:102D6000204600F0D3FE210A32460198FFF743FFC8
:102D700087E6FFB581B00746039800251E460C463E
:102D8000002800D1B5887A882846083083B239886F
:102D9000204600F00FFF0446387900F0DDFF208068
:102DA0000398A07100206080A580002E06D0308896
:102DB00060802A46B11DE01D00F05AFE204600F05A
:102DC0000BFF5EE60A880270120A42708A788270EF
:102DD000CA78C2700A7902714A794271897981711F
:102DE000072070474278037812021A430A808278DB
:102DF0008A70C278CA7002790A7142794A71807900
:102E000088710720704710B5FFF7EAFA10BDF8B5D2
:102E100004020646363417460D46204600F05EFE94
:102E2000002805D0EAB223463946304600F0BEFFFE
:102E3000F8BD10B504460068002803D000F0A4FFD8
:102E40000020206010BDF7B5054600680024144E30
:102E50000F4600280BD1F0690121800000F0ACFF83
:102E6000286000280BD0F169890000F02BFEF06982
:102E7000B84212D92868BF00C059002801D089245F
:102E80000CE00121029800F097FF0600F7D00299AC
:102E900000F098FF2868C65100E081242046FEBD5E
:102EA000E001002038B50124684604700C21654813
:102EB00000F088FF634D6946EC702A1D352000F054
:102EC00087FF002800D02C7100F0B4F95E49322051
:102ED00000F066FF0021322000F018FE38BD10B56A
:102EE00000F0F5F910BD10B5564802238078322263
:102EF000010256480E3100F05DFE012101701321E0
:102F0000417000F069FE10BD10B504464D482C23F9
:102F10008078322201024D480E31801E00F04AFEB8
:102F200001462030047200224272084600F054FE2E
:102F300010BD10B5502332220D21454800F03AFE55
:102F4000044600F093F9204600F046FE02213220AC
:102F500000F0DCFD10BD3E4810B5012332220D21EA
:102F60000B3800F027FE0221017000F035FE10BD85
:102F700010B500F0E3F910BD364B10B59A4201D9F7
:102F80001A4602E0002A00D1012200F027FF10BDFE
:102F900010B50221322000F0B9FD2D481423322251
:102FA0000D21401C00F006FE002101741122027068
:102FB0004170012181740A2181810521C18100F0C4
:102FC0000BFE10BD224810B51E2332220D21C01C5D
:102FD00000F0F0FD044601202077204606221E491D
:102FE0001D3000F045FD0A212182618220212183CC
:102FF00061830021A1826170232001556420E08259
:10300000FF208130A081FF206130E08112202070FC
:10301000AF22920032211148FFF7AEFF204600F0A8
:10302000DBFD10BD0A4810B5012332220D210B38FB
:1030300000F0C0FD1121017000F0CEFD10BD084967
:10304000C86470474E800020003F00200438000014
:103050000E340000307500005C80002001C80000C4
:10306000E001002010B5104600F038FD002809D11D
:10307000012332220D21654800F09CFD01210170E1
:1030800000F0AAFD002010BD70B5087815460F2885
:103090002DD008DC01280DD0022835D003281CD003
:1030A0000E2836D11FE0102825D0112823D0122851
:1030B0002FD129E0487800282BD1544822233222EE
:1030C0000D21801C00F076FD04460146284600F0E4
:1030D00008F9204600F080FD1BE04878002818D150
:1030E00000F006F915E0487800F010F911E0487892
:1030F00000F00DF90DE04878442802D0FFF748FFB2
:1031000007E0FFF75FFF04E04878442801D100F0B2
:1031100011F9002070BD70B51D4616460C461046CC
:1031200000F0DCFC022821D1280A394DFF28A870C4
:103130001AD03221374800F0DDFC0521304600F07E
:10314000E5FC204600F08CF821882980617A6971BD
:10315000214606220A31A81D00F08AFC0020FFF754
:10316000D3FEFFF705FF01E0FFF7E3FE002070BD8F
:1031700010B510460A780A2A0BD14978002903D0E5
:10318000084600F0C1F804E0052100F0BFFC00F0A3
:10319000BCF8002010BD10B5104600F082F80020E9
:1031A00010BD10B51A4801238078322201021A4856
:1031B0000E3100F0FFFC0021017000F00DFD002039
:1031C00010BD10B510460C4600F088FC012808D14F
:1031D0002078002805D1FFF782FE002801D000F0FA
:1031E00097F8002010BD10B50C46204612220BA106
:1031F0000C3000F051FD002806D10622A11C0C481D
:1032000000F036FCFFF70EFF002010BD0234000076
:103210004E80002001C80000103800001107B75C84
:1032200049D204A34071A0B535853EB083070000A4
:103230005C80002010B50220FFF701FF00F056FB74
:1032400010BD10B53F4801238078322201023E486C
:103250000C3100F0AFFC0121017000F0BDFC10BD8D
:1032600010B500F04BFBFFF7ECFF10BD704770B5D9
:103270000D461446014604233222344800F09AFCDD
:103280000580847000F0A8FC70BD10B501233222C7
:103290000D212F4800F08EFC0121017000F09CFCF4
:1032A00010BD10B50C4600F019FCA07813280BD007
:1032B000162809D0FFF7E9FF0C21224800F082FD13
:1032C00020490120C87010BDFFF762FE10BD1D49E6
:1032D0000020CA78002A01D0012070470122CA705C
:1032E00070470320087005204870A020C8827047EE
:1032F00010B50121322000F009FCFFF7F0FD002895
:1033000001D0FFF745FE10BD70477047704770470A
:1033100010B5FFF73DFE10BD0D4810B50123322258
:103320000D21401C00F046FC0221017000F054FC0D
:10333000002010BD10B5FFF72BFE10BD7047704781
:10334000704770474E8000200130000003380000B5
:103350000234000010B505480078012804D001208F
:1033600000F0DBFA002010BD0220F9E7A880002061
:10337000F8B504460D46481C069F24C40021616030
:10338000A160504320601E460321083C00F014FD5C
:103390006061002020210855AF4206DABE4204DCFD
:1033A000002E02DDE761A661F8BDFEE70269C16893
:1033B0008A4201DB501A704780688018401A7047B3
:1033C000F8B515460F460446FFF7F0FF6168081A86
:1033D000002811DDA84200DAC5B22069A2684119AF
:1033E0008E1A6169002E08DC08182A46394600F05A
:1033F0003FFB206940192061F8BD0818AD1B2A4623
:10340000394600F035FBE9193246606900F030FBBF
:103410002661F8BD30B513460D460446FFF7C6FFDA
:10342000002816DD984200DAC3B2E068A268C1182D
:10343000891A904201D1606903E0002903DC6169C7
:103440000818286006E0626910182860581AC3B28C
:1034500000E00023184630BD30B50B460446FFF7A8
:10346000A5FF00280EDD984200DAC3B2E168A56826
:10347000CA18501BA94201D1E36004E0002802DC15
:10348000E26000E00023184630BD022903D0012984
:1034900000D1017070470021FBE770B5F74C16466C
:1034A0000A460346257831462046FFF7EEFF2046C0
:1034B00019464230FFF784FF21460846423000F0AB
:1034C000F3F96078012802D02078A84203D0FEF7F3
:1034D000B0F90020607070BDE84A10B5921F5278B4
:1034E000002802D0022802D0FEE7082100E0C9B27D
:1034F000E248C01CFFF7D1FFE04A0821521FE04B11
:103500005018FEF7ACF910BDF8B5002800D0FEE762
:10351000DA4D0026AD1F2E70A81D29460078113106
:10352000102201281DD10846133000F078F9044616
:10353000E91C0846213000F0C7F9EF1CB8780128D3
:1035400002D100F0EAF9BE70210005D0CB4ACD4B84
:10355000921F104611300BE02878022803D0012872
:1035600001D0AE70F8BDC54A0021C64B921F084677
:10357000FEF782F9F8BD0A460146C04810B51E3074
:10358000FFF71EFFBD49C91E0846213000F08CF927
:10359000BA4CE41E6078012804D1022000F0BDF985
:1035A0000020607072B6B548801F8178002904D170
:1035B000012181700020FFF7A7FF62B610BDAF4860
:1035C00008B51E3000F022F900281BD1AB4842306C
:1035D00000F01CF9002815D1AB480090AA4BA74871
:1035E000E121C83B0122C9001E30FFF7C1FEFF20C8
:1035F0005F300090A148FF2196230122F53142302F
:10360000FFF7B6FE08BD9D4A10B5521F08219C4B1E
:103610005018FEF724F910BD98490020C91E4870C3
:10362000887001220A70C91C487088700A7070473F
:1036300010B596480078002816D19048C01E007832
:10364000012811D18D484230FFF7B0FE00280BDD74
:103650008F494A2804DA0878421C0A700A2803D3E2
:103660000020087000F065F910BD10B58948807819
:103670000002323000F032FA05280AD1022000F0B0
:103680004CF902217D48FFF700FF7C4801213E30C4
:10369000017010BD10B501217848FFF7F6FE77499B
:1036A000C91E0846213000F00FF9744CE41EA078C2
:1036B000012803D100F031F90020A07010BD6F493E
:1036C00010B50846423000F0FFF86C4CA078012895
:1036D00003D1FEF732F80020A07010BD10B5FFF73F
:1036E00092FF664862300078002807D0FEF729F87C
:1036F000624C3E342078012803D008E0FEF71DF824
:10370000F6E702210020FDF744FE002803D02078D0
:10371000002803D00AE0FFF7BDFF07E002210020E8
:10372000FDF737FE002801D0FFF79FFF5A49002020
:10373000087010BDF8B5594D0024686D0090FDF774
:1037400062F9574E002802D13079022801D10020B9
:103750000090FDF79CFB002820D100F0A9FA00287A
:103760001CD0012405200007808AC00715D100F075
:103770001FF9002812D14B488069002801D0686DDC
:103780000090B178684600F099FA002806D0B17828
:10379000684600F01FF9002800D004242046F8BD38
:1037A00038B5FFF7C7FF694608700446042819D1E9
:1037B00032481E30FFF7FAFD002809D12F48423069
:1037C000FFF7F4FD002803D1FEF739F800280AD0EE
:1037D000304880780002323000F080F9052801D1AD
:1037E000FDF7B0F838BDFEF781F80028F8D1042CB9
:1037F000F8D1FDF7A6FF0121002804D0264801706A
:10380000FDF7ADF838BD6846017038BD002804D01A
:103810004069002801D00120704700207047F8B5AA
:1038200014460E460546FFF7C1FD002822DDA042E2
:1038300000DAC4B2E868AA6801198F1A6969002F12
:1038400008DC09182246304600F012F9E868001931
:10385000E8600CE00918E21B3046009200F008F91D
:10386000009A696990193A4600F002F9EF60002069
:10387000305501E0002434702046F8BD6A800020F5
:10388000D934002009350020520300004D8000206B
:10389000DD9000204E8000205A8000206002002031
:1038A000C6060800A805080010B50C460346FFF739
:1038B0007DFDD969884206DD20331878002802D1C1
:1038C00001206070187010BD10B50C460346FFF75C
:1038D0006DFD9969884207DC20331878012803D1EF
:1038E000002018700120A07010BD000010B5FFF777
:1038F00066FEFFF788FEFFF78FFE10BD10B536217C
:103900001A233222880200F055F90F4909880180F4
:103910000021817000F060F910BD10B5044601234C
:1039200032223621094800F045F9047000F054F9BC
:1039300010BD064810B5012332223621401E00F08A
:1039400039F900F049F910BD4E80002004D800007C
:10395000064C0125064E05E0E36807CC2B430C3CE2
:1039600098471034B442F7D3FCF76EFD683F00204F
:10397000983F002003B40148019001BD551B02008F
:1039800003B40148019001BD0F3B030003B401489B
:10399000019001BDCF2B030003B40148019001BD8C
:1039A000CB2C030003B40148019001BD0990020033
:1039B00003B40148019001BDC12D030003B40148C7
:1039C000019001BD0921030003B40148019001BD2C
:1039D000C92D030003B40148019001BD2B69020009
:1039E00003B40148019001BDEB31030003B4014869
:1039F000019001BD3D32030003B40148019001BDB7
:103A0000D721030003B40148019001BD1F2102002A
:103A100003B40148019001BD2F2F030003B40148F6
:103A2000019001BD998F020003B40148019001BDCE
:103A3000938F020003B40148019001BDCD8C0200B8
:103A400003B40148019001BD418F020003B4014855
:103A5000019001BD2768020003B40148019001BD37
:103A60003968020003B40148019001BDB78002002B
:103A700003B40148019001BD213B030003B4014898
:103A8000019001BD8D3D030003B40148019001BDCB
:103A9000BF22020003B40148019001BDEB260300E0
:103AA00003B40148019001BD3524030003B401486B
:103AB000019001BD2F22020003B40148019001BD15
:103AC000DD20030003B40148019001BD533B030016
:103AD00003B40148019001BD9D20030003B40148D7
:103AE000019001BDB326030003B40148019001BD5C
:103AF000FD3D030003B40148019001BDA52803006A
:103B000003B40148019001BDD5AF020003B40148E0
:103B1000019001BD3126030003B40148019001BDAD
:103B2000A1A5020003B40148019001BDE3A5020074
:103B300003B40148019001BD87A8020003B4014805
:103B4000019001BDA7A9020003B40148019001BD85
:103B500093AA020003B40148019001BD95AB020095
:103B600003B40148019001BDF9AB020003B4014860
:103B7000019001BD69AC020003B40148019001BD90
:103B800017AD020003B40148019001BD77AD0200FA
:103B900003B40148019001BDF1AD020003B4014836
:103BA000019001BD85AE020003B40148019001BD42
:103BB00011AF020003B40148019001BDB12303001D
:103BC00003B40148019001BD49E5020003B4014876
:103BD000019001BDF9E3020003B40148019001BD69
:103BE000E123030003B40148019001BD4BCD020065
:103BF00003B40148019001BD99D1020003B401480A
:103C0000019001BDABD0020003B40148019001BD99
:103C100069D0020003B40148019001BD77CF0200D2
:103C200003B40148019001BD01CC020003B4014876
:103C3000019001BD29CC020003B40148019001BDEF
:103C400015D2020003B40148019001BD8DD20200DB
:103C500003B40148019001BD3350020003B4014890
:103C6000019001BDA73A030003B40148019001BDD2
:103C70005548020003B40148019001BD1F500200E5
:103C800003B40148019001BD7F0C030003B4014857
:103C9000019001BDAB0C030003B40148019001BDCC
:103CA000773B030003B40148019001BDD72903000D
:103CB00003B40148019001BD7920030003B4014819
:103CC000019001BD2129030003B40148019001BD09
:103CD000C768020003B40148019001BD0D2C030028
:103CE00003B40148019001BD1531030003B401483C
:103CF000019001BD1B66020003B40148019001BDA3
:103D0000652C030003B40148019001BDDB2E0300C4
:103D100003B40148019001BD231D020003B4014812
:103D2000019001BDC32C030003B40148019001BD03
:103D30003B66020003B40148019001BD2B660200FE
:103D400003B40148019001BD038D020003B4014892
:103D5000019001BDCF8F020003B40148019001BD65
:103D6000E3E3020003B40148019001BDB7E30200A0
:103D700003B40148019001BDE997020003B4014872
:103D8000019001BD1D98020003B40148019001BDDE
:103D9000D722030003B40148019001BD1B24030096
:103DA00003B40148019001BD8725030003B4014815
:103DB000019001BD95E3020003B40148019001BDEB
:103DC0001522030003B40148019001BD533B0300D9
:103DD00003B40148019001BDD129030003B4014897
:103DE000019001BD2528030002E008C8121F08C188
:103DF000002AFAD170477047002001E001C1121F6C
:103E0000002AFBD170470000AD050020B11A002048
:103E10009D1B00205B1C0020891C00209D1E002093
:103E2000011F0020611F00200101000A04280A046C
:103E30000203AA0055032A00A001FFFF2C01FF0086
:103E40003F00FF03FF010000E03E0020F83E00209D
:103E5000A03F002003000600B85C49D204A34071D3
:103E6000A0B535853EB08307FF10BA5C49D204A3E4
:103E70004071A0B535853EB08307FF04B95C49D2D7
:103E800004A34071A0B535853EB08307FF14000040
:103E900000D80000B72400200B300000932600203B
:103EA000033800007D26002003D80000C52600202E
:103EB00004D80000432700200530000053250020CF
:103EC000033000008D24002000D80000B72400201B
:103ED000033800007D2600200030000079250020F6
:103EE0000000000000000000903E002005000000DF
:103EF000B83E002002000000C83E00200300000081
:103F000000000000603F00205B80002006000100F0
:103F100001340000653000200034000089300020AA
:103F200010340000E731002000380000713100201B
:103F300001380000173100200338000097310020BD
:103F400000C80000C331002001D800005533002014
:103F50000F380000A331002001C8000019330020F1
:103F6000103F00200A000000A83F00200080002031
:103F7000D0000000F83D0020A83F00202090002045
:103F8000C0000000F83D002068070800202A080053
:103F9000E0050000F83D0020800C0000000000005B
:083FA000000000000000000019
:040000052000044192
:00000001FF
